{
  "contractName": "Betting",
  "abi": [
    {
      "inputs": [
        {
          "name": "_participants",
          "type": "bytes10[]"
        },
        {
          "name": "_tournamentName",
          "type": "string"
        }
      ],
      "payable": false,
      "stateMutability": "nonpayable",
      "type": "constructor"
    },
    {
      "constant": false,
      "inputs": [],
      "name": "openBettingWindow",
      "outputs": [],
      "payable": false,
      "stateMutability": "nonpayable",
      "type": "function"
    },
    {
      "constant": true,
      "inputs": [],
      "name": "getTimeLeft",
      "outputs": [
        {
          "name": "",
          "type": "uint256"
        }
      ],
      "payable": false,
      "stateMutability": "view",
      "type": "function"
    },
    {
      "constant": true,
      "inputs": [],
      "name": "dateToStart",
      "outputs": [
        {
          "name": "",
          "type": "uint256"
        }
      ],
      "payable": false,
      "stateMutability": "view",
      "type": "function"
    },
    {
      "constant": true,
      "inputs": [],
      "name": "getPoolMoney",
      "outputs": [
        {
          "name": "",
          "type": "uint256"
        }
      ],
      "payable": false,
      "stateMutability": "view",
      "type": "function"
    },
    {
      "constant": false,
      "inputs": [
        {
          "name": "_id",
          "type": "bytes10"
        }
      ],
      "name": "bet",
      "outputs": [
        {
          "name": "",
          "type": "uint256"
        }
      ],
      "payable": true,
      "stateMutability": "payable",
      "type": "function"
    },
    {
      "constant": true,
      "inputs": [
        {
          "name": "id",
          "type": "bytes10"
        }
      ],
      "name": "getParticipantBettors",
      "outputs": [
        {
          "name": "",
          "type": "address[]"
        }
      ],
      "payable": false,
      "stateMutability": "view",
      "type": "function"
    },
    {
      "constant": false,
      "inputs": [
        {
          "name": "id",
          "type": "bytes10"
        }
      ],
      "name": "setWinner",
      "outputs": [],
      "payable": false,
      "stateMutability": "nonpayable",
      "type": "function"
    },
    {
      "constant": true,
      "inputs": [],
      "name": "getParticipants",
      "outputs": [
        {
          "name": "",
          "type": "bytes10[]"
        }
      ],
      "payable": false,
      "stateMutability": "view",
      "type": "function"
    },
    {
      "constant": true,
      "inputs": [
        {
          "name": "id",
          "type": "bytes10"
        }
      ],
      "name": "totalBetFor",
      "outputs": [
        {
          "name": "total",
          "type": "uint256"
        }
      ],
      "payable": false,
      "stateMutability": "view",
      "type": "function"
    },
    {
      "constant": false,
      "inputs": [],
      "name": "claimWinnings",
      "outputs": [],
      "payable": true,
      "stateMutability": "payable",
      "type": "function"
    },
    {
      "constant": false,
      "inputs": [],
      "name": "startTournament",
      "outputs": [],
      "payable": false,
      "stateMutability": "nonpayable",
      "type": "function"
    },
    {
      "constant": true,
      "inputs": [],
      "name": "getTournamentStatus",
      "outputs": [
        {
          "name": "",
          "type": "string"
        }
      ],
      "payable": false,
      "stateMutability": "view",
      "type": "function"
    },
    {
      "constant": true,
      "inputs": [],
      "name": "getClaimablePoolMoney",
      "outputs": [
        {
          "name": "",
          "type": "uint256"
        }
      ],
      "payable": false,
      "stateMutability": "view",
      "type": "function"
    },
    {
      "constant": false,
      "inputs": [
        {
          "name": "toStore",
          "type": "string"
        }
      ],
      "name": "storeGameHash",
      "outputs": [],
      "payable": false,
      "stateMutability": "nonpayable",
      "type": "function"
    },
    {
      "constant": true,
      "inputs": [],
      "name": "getTournamentName",
      "outputs": [
        {
          "name": "",
          "type": "string"
        }
      ],
      "payable": false,
      "stateMutability": "view",
      "type": "function"
    },
    {
      "constant": true,
      "inputs": [],
      "name": "getGameHash",
      "outputs": [
        {
          "name": "",
          "type": "string"
        }
      ],
      "payable": false,
      "stateMutability": "view",
      "type": "function"
    }
  ],
  "bytecode": "0x60806040526103e860005564e8d4a51000600155600060035533600460006101000a81548173ffffffffffffffffffffffffffffffffffffffff021916908373ffffffffffffffffffffffffffffffffffffffff160217905550603c60065560006008556040805190810160405280600781526020017f70656e64696e670000000000000000000000000000000000000000000000000081525060099080519060200190620000b092919062000492565b50348015620000be57600080fd5b5060405162002f4938038062002f498339810180604052810190808051820192919060200180518201929190505050620001078262000128640100000000026401000000009004565b80600b90805190602001906200011f92919062000492565b50505062000654565b80600081511115156200013a57600080fd5b600460009054906101000a900473ffffffffffffffffffffffffffffffffffffffff1673ffffffffffffffffffffffffffffffffffffffff163373ffffffffffffffffffffffffffffffffffffffff161415156200019757600080fd5b6200028560098054600181600116156101000203166002900480601f016020809104026020016040519081016040528092919081815260200182805460018160011615610100020316600290048015620002355780601f10620002095761010080835404028352916020019162000235565b820191906000526020600020905b8154815290600101906020018083116200021757829003601f168201915b50505050506040805190810160405280600781526020017f70656e64696e6700000000000000000000000000000000000000000000000000815250620002d9640100000000026401000000009004565b15156200029157600080fd5b600060048351811515620002a157fe5b061480620002b0575060028251145b1515620002bc57600080fd5b8160029080519060200190620002d492919062000519565b505050565b6000816040516020018082805190602001908083835b602083101515620003165780518252602082019150602081019050602083039250620002ef565b6001836020036101000a0380198251168184511680821785525050505050509050019150506040516020818303038152906040526040518082805190602001908083835b6020831015156200038157805182526020820191506020810190506020830392506200035a565b6001836020036101000a038019825116818451168082178552505050505050905001915050604051809103902060001916836040516020018082805190602001908083835b602083101515620003ed5780518252602082019150602081019050602083039250620003c6565b6001836020036101000a0380198251168184511680821785525050505050509050019150506040516020818303038152906040526040518082805190602001908083835b60208310151562000458578051825260208201915060208101905060208303925062000431565b6001836020036101000a03801982511681845116808217855250505050505090500191505060405180910390206000191614905092915050565b828054600181600116156101000203166002900490600052602060002090601f016020900481019282601f10620004d557805160ff191683800117855562000506565b8280016001018555821562000506579182015b8281111562000505578251825591602001919060010190620004e8565b5b509050620005159190620005f0565b5090565b82805482825590600052602060002090600201600390048101928215620005dd5791602002820160005b83821115620005a357835183826101000a81548169ffffffffffffffffffff0219169083760100000000000000000000000000000000000000000000900402179055509260200192600a0160208160090104928301926001030262000543565b8015620005db5782816101000a81549069ffffffffffffffffffff0219169055600a01602081600901049283019260010302620005a3565b505b509050620005ec919062000618565b5090565b6200061591905b8082111562000611576000816000905550600101620005f7565b5090565b90565b6200065191905b808211156200064d57600081816101000a81549069ffffffffffffffffffff0219169055506001016200061f565b5090565b90565b6128e580620006646000396000f3006080604052600436106100e6576000357c0100000000000000000000000000000000000000000000000000000000900463ffffffff16806314f54bd6146100eb5780631c44853414610186578063309652ec146102165780635aa68ac0146102415780636d543f6b146102ad5780637bcf6d92146102d85780637bed4dd41461031e57806393211ddc1461036b5780639b487de1146103c5578063b401faf114610455578063b59fa2961461045f578063bf559d11146104ef578063bf862a9914610506578063c7e284b81461056f578063e657f95f1461059a578063f132b62c146105b1575b600080fd5b3480156100f757600080fd5b5061012f600480360381019080803575ffffffffffffffffffffffffffffffffffffffffffff191690602001909291905050506105dc565b6040518080602001828103825283818151815260200191508051906020019060200280838360005b83811015610172578082015181840152602081019050610157565b505050509050019250505060405180910390f35b34801561019257600080fd5b5061019b6106af565b6040518080602001828103825283818151815260200191508051906020019080838360005b838110156101db5780820151818401526020810190506101c0565b50505050905090810190601f1680156102085780820380516001836020036101000a031916815260200191505b509250505060405180910390f35b34801561022257600080fd5b5061022b610751565b6040518082815260200191505060405180910390f35b34801561024d57600080fd5b5061025661080a565b6040518080602001828103825283818151815260200191508051906020019060200280838360005b8381101561029957808201518184015260208101905061027e565b505050509050019250505060405180910390f35b3480156102b957600080fd5b506102c26108b4565b6040518082815260200191505060405180910390f35b3480156102e457600080fd5b5061031c600480360381019080803575ffffffffffffffffffffffffffffffffffffffffffff191690602001909291905050506109a2565b005b610355600480360381019080803575ffffffffffffffffffffffffffffffffffffffffffff19169060200190929190505050610c48565b6040518082815260200191505060405180910390f35b34801561037757600080fd5b506103af600480360381019080803575ffffffffffffffffffffffffffffffffffffffffffff191690602001909291905050506110ba565b6040518082815260200191505060405180910390f35b3480156103d157600080fd5b506103da6112d6565b6040518080602001828103825283818151815260200191508051906020019080838360005b8381101561041a5780820151818401526020810190506103ff565b50505050905090810190601f1680156104475780820380516001836020036101000a031916815260200191505b509250505060405180910390f35b61045d611378565b005b34801561046b57600080fd5b506104746118ca565b6040518080602001828103825283818151815260200191508051906020019080838360005b838110156104b4578082015181840152602081019050610499565b50505050905090810190601f1680156104e15780820380516001836020036101000a031916815260200191505b509250505060405180910390f35b3480156104fb57600080fd5b5061050461196c565b005b34801561051257600080fd5b5061056d600480360381019080803590602001908201803590602001908080601f0160208091040260200160405190810160405280939291908181526020018383808284378201915050505050509192919290505050611bcd565b005b34801561057b57600080fd5b50610584611e19565b6040518082815260200191505060405180910390f35b3480156105a657600080fd5b506105af612042565b005b3480156105bd57600080fd5b506105c66121eb565b6040518082815260200191505060405180910390f35b6060600f60008375ffffffffffffffffffffffffffffffffffffffffffff191675ffffffffffffffffffffffffffffffffffffffffffff191681526020019081526020016000208054806020026020016040519081016040528092919081815260200182805480156106a357602002820191906000526020600020905b8160009054906101000a900473ffffffffffffffffffffffffffffffffffffffff1673ffffffffffffffffffffffffffffffffffffffff1681526020019060010190808311610659575b50505050509050919050565b606060098054600181600116156101000203166002900480601f0160208091040260200160405190810160405280929190818152602001828054600181600116156101000203166002900480156107475780601f1061071c57610100808354040283529160200191610747565b820191906000526020600020905b81548152906001019060200180831161072a57829003601f168201915b5050505050905090565b600073__SafeMathLib___________________________63f88e9fbf6003546000546040518363ffffffff167c0100000000000000000000000000000000000000000000000000000000028152600401808381526020018281526020019250505060206040518083038186803b1580156107ca57600080fd5b505af41580156107de573d6000803e3d6000fd5b505050506040513d60208110156107f457600080fd5b8101908080519060200190929190505050905090565b606060028054806020026020016040519081016040528092919081815260200182805480156108aa57602002820191906000526020600020906000905b82829054906101000a90047601000000000000000000000000000000000000000000000275ffffffffffffffffffffffffffffffffffffffffffff1916815260200190600a01906020826009010492830192600103820291508084116108475790505b5050505050905090565b600061098f60098054600181600116156101000203166002900480601f01602080910402602001604051908101604052809291908181526020018280546001816001161561010002031660029004801561094f5780601f106109245761010080835404028352916020019161094f565b820191906000526020600020905b81548152906001019060200180831161093257829003601f168201915b50505050506040805190810160405280600581526020017f656e6465640000000000000000000000000000000000000000000000000000008152506122bc565b151561099a57600080fd5b600854905090565b600460009054906101000a900473ffffffffffffffffffffffffffffffffffffffff1673ffffffffffffffffffffffffffffffffffffffff163373ffffffffffffffffffffffffffffffffffffffff161415156109fe57600080fd5b610ad760098054600181600116156101000203166002900480601f016020809104026020016040519081016040528092919081815260200182805460018160011615610100020316600290048015610a975780601f10610a6c57610100808354040283529160200191610a97565b820191906000526020600020905b815481529060010190602001808311610a7a57829003601f168201915b50505050506040805190810160405280600781526020017f6f6e676f696e67000000000000000000000000000000000000000000000000008152506122bc565b1515610ae257600080fd5b4273__SafeMathLib___________________________63771602f76005546006546040518363ffffffff167c0100000000000000000000000000000000000000000000000000000000028152600401808381526020018281526020019250505060206040518083038186803b158015610b5a57600080fd5b505af4158015610b6e573d6000803e3d6000fd5b505050506040513d6020811015610b8457600080fd5b8101908080519060200190929190505050101515610ba157600080fd5b6000600280549050111515610bb557600080fd5b80600760006101000a81548169ffffffffffffffffffff0219169083760100000000000000000000000000000000000000000000900402179055506040805190810160405280600581526020017f656e64656400000000000000000000000000000000000000000000000000000081525060099080519060200190610c3b929190612814565b5060035460088190555050565b600034600081111515610c5a57600080fd5b600a60ff16600081111515610c6e57600080fd5b83610c788161246d565b1515610c8357600080fd5b610d5c60098054600181600116156101000203166002900480601f016020809104026020016040519081016040528092919081815260200182805460018160011615610100020316600290048015610d1c5780601f10610cf157610100808354040283529160200191610d1c565b820191906000526020600020905b815481529060010190602001808311610cff57829003601f168201915b50505050506040805190810160405280600781526020017f62657474696e67000000000000000000000000000000000000000000000000008152506122bc565b1515610d6757600080fd5b4273__SafeMathLib___________________________63771602f76005546006546040518363ffffffff167c0100000000000000000000000000000000000000000000000000000000028152600401808381526020018281526020019250505060206040518083038186803b158015610ddf57600080fd5b505af4158015610df3573d6000803e3d6000fd5b505050506040513d6020811015610e0957600080fd5b8101908080519060200190929190505050111515610e2657600080fd5b6000600280549050111515610e3a57600080fd5b73__SafeMathLib___________________________63771602f7600c60003373ffffffffffffffffffffffffffffffffffffffff1673ffffffffffffffffffffffffffffffffffffffff16815260200190815260200160002060008875ffffffffffffffffffffffffffffffffffffffffffff191675ffffffffffffffffffffffffffffffffffffffffffff1916815260200190815260200160002054346040518363ffffffff167c0100000000000000000000000000000000000000000000000000000000028152600401808381526020018281526020019250505060206040518083038186803b158015610f2f57600080fd5b505af4158015610f43573d6000803e3d6000fd5b505050506040513d6020811015610f5957600080fd5b8101908080519060200190929190505050600c60003373ffffffffffffffffffffffffffffffffffffffff1673ffffffffffffffffffffffffffffffffffffffff16815260200190815260200160002060008775ffffffffffffffffffffffffffffffffffffffffffff191675ffffffffffffffffffffffffffffffffffffffffffff191681526020019081526020016000208190555073__SafeMathLib___________________________63771602f7600354346040518363ffffffff167c0100000000000000000000000000000000000000000000000000000000028152600401808381526020018281526020019250505060206040518083038186803b15801561106557600080fd5b505af4158015611079573d6000803e3d6000fd5b505050506040513d602081101561108f57600080fd5b81019080805190602001909291905050506003819055506110af85612524565b349350505050919050565b600080600090505b600f60008475ffffffffffffffffffffffffffffffffffffffffffff191675ffffffffffffffffffffffffffffffffffffffffffff19168152602001908152602001600020805490508110156112cd5773__SafeMathLib___________________________63771602f783600c6000600f60008975ffffffffffffffffffffffffffffffffffffffffffff191675ffffffffffffffffffffffffffffffffffffffffffff191681526020019081526020016000208681548110151561118357fe5b9060005260206000200160009054906101000a900473ffffffffffffffffffffffffffffffffffffffff1673ffffffffffffffffffffffffffffffffffffffff1673ffffffffffffffffffffffffffffffffffffffff16815260200190815260200160002060008775ffffffffffffffffffffffffffffffffffffffffffff191675ffffffffffffffffffffffffffffffffffffffffffff19168152602001908152602001600020546040518363ffffffff167c0100000000000000000000000000000000000000000000000000000000028152600401808381526020018281526020019250505060206040518083038186803b15801561128357600080fd5b505af4158015611297573d6000803e3d6000fd5b505050506040513d60208110156112ad57600080fd5b8101908080519060200190929190505050915080806001019150506110c2565b81915050919050565b6060600a8054600181600116156101000203166002900480601f01602080910402602001604051908101604052809291908181526020018280546001816001161561010002031660029004801561136e5780601f106113435761010080835404028352916020019161136e565b820191906000526020600020905b81548152906001019060200180831161135157829003601f168201915b5050505050905090565b600061145360098054600181600116156101000203166002900480601f0160208091040260200160405190810160405280929190818152602001828054600181600116156101000203166002900480156114135780601f106113e857610100808354040283529160200191611413565b820191906000526020600020905b8154815290600101906020018083116113f657829003601f168201915b50505050506040805190810160405280600581526020017f656e6465640000000000000000000000000000000000000000000000000000008152506122bc565b151561145e57600080fd5b4273__SafeMathLib___________________________63771602f76005546006546040518363ffffffff167c0100000000000000000000000000000000000000000000000000000000028152600401808381526020018281526020019250505060206040518083038186803b1580156114d657600080fd5b505af41580156114ea573d6000803e3d6000fd5b505050506040513d602081101561150057600080fd5b810190808051906020019092919050505010151561151d57600080fd5b61154c600760009054906101000a900476010000000000000000000000000000000000000000000002336126ea565b151561155757600080fd5b60001515600d60003373ffffffffffffffffffffffffffffffffffffffff1673ffffffffffffffffffffffffffffffffffffffff1681526020019081526020016000206000600760009054906101000a90047601000000000000000000000000000000000000000000000275ffffffffffffffffffffffffffffffffffffffffffff191675ffffffffffffffffffffffffffffffffffffffffffff1916815260200190815260200160002060009054906101000a900460ff16151514151561161e57600080fd5b60085460008111151561163057600080fd5b61165e600760009054906101000a9004760100000000000000000000000000000000000000000000026110ba565b600c60003373ffffffffffffffffffffffffffffffffffffffff1673ffffffffffffffffffffffffffffffffffffffff1681526020019081526020016000206000600760009054906101000a90047601000000000000000000000000000000000000000000000275ffffffffffffffffffffffffffffffffffffffffffff191675ffffffffffffffffffffffffffffffffffffffffffff19168152602001908152602001600020546003540281151561171357fe5b0491503373ffffffffffffffffffffffffffffffffffffffff166108fc839081150290604051600060405180830381858888f1935050505015801561175c573d6000803e3d6000fd5b5073__SafeMathLib___________________________633ef5e445600354846040518363ffffffff167c0100000000000000000000000000000000000000000000000000000000028152600401808381526020018281526020019250505060206040518083038186803b1580156117d257600080fd5b505af41580156117e6573d6000803e3d6000fd5b505050506040513d60208110156117fc57600080fd5b8101908080519060200190929190505050600881905550600d60003373ffffffffffffffffffffffffffffffffffffffff1673ffffffffffffffffffffffffffffffffffffffff1681526020019081526020016000206000600760009054906101000a90047601000000000000000000000000000000000000000000000275ffffffffffffffffffffffffffffffffffffffffffff191675ffffffffffffffffffffffffffffffffffffffffffff1916815260200190815260200160002060009054906101000a9050505050565b6060600b8054600181600116156101000203166002900480601f0160208091040260200160405190810160405280929190818152602001828054600181600116156101000203166002900480156119625780601f1061193757610100808354040283529160200191611962565b820191906000526020600020905b81548152906001019060200180831161194557829003601f168201915b5050505050905090565b600460009054906101000a900473ffffffffffffffffffffffffffffffffffffffff1673ffffffffffffffffffffffffffffffffffffffff163373ffffffffffffffffffffffffffffffffffffffff161415156119c857600080fd5b60006002805490501115156119dc57600080fd5b4273__SafeMathLib___________________________63771602f76005546006546040518363ffffffff167c0100000000000000000000000000000000000000000000000000000000028152600401808381526020018281526020019250505060206040518083038186803b158015611a5457600080fd5b505af4158015611a68573d6000803e3d6000fd5b505050506040513d6020811015611a7e57600080fd5b8101908080519060200190929190505050101515611a9b57600080fd5b611b7460098054600181600116156101000203166002900480601f016020809104026020016040519081016040528092919081815260200182805460018160011615610100020316600290048015611b345780601f10611b0957610100808354040283529160200191611b34565b820191906000526020600020905b815481529060010190602001808311611b1757829003601f168201915b50505050506040805190810160405280600781526020017f62657474696e67000000000000000000000000000000000000000000000000008152506122bc565b1515611b7f57600080fd5b6040805190810160405280600781526020017f6f6e676f696e670000000000000000000000000000000000000000000000000081525060099080519060200190611bca929190612814565b50565b600460009054906101000a900473ffffffffffffffffffffffffffffffffffffffff1673ffffffffffffffffffffffffffffffffffffffff163373ffffffffffffffffffffffffffffffffffffffff16141515611c2957600080fd5b60001515611d0660098054600181600116156101000203166002900480601f016020809104026020016040519081016040528092919081815260200182805460018160011615610100020316600290048015611cc65780601f10611c9b57610100808354040283529160200191611cc6565b820191906000526020600020905b815481529060010190602001808311611ca957829003601f168201915b50505050506040805190810160405280600581526020017f656e6465640000000000000000000000000000000000000000000000000000008152506122bc565b1515141515611d1457600080fd5b60001515611df160098054600181600116156101000203166002900480601f016020809104026020016040519081016040528092919081815260200182805460018160011615610100020316600290048015611db15780601f10611d8657610100808354040283529160200191611db1565b820191906000526020600020905b815481529060010190602001808311611d9457829003601f168201915b50505050506040805190810160405280600781526020017f62657474696e67000000000000000000000000000000000000000000000000008152506122bc565b1515141515611dff57600080fd5b80600a9080519060200190611e15929190612814565b5050565b60004273__SafeMathLib___________________________63771602f76005546006546040518363ffffffff167c0100000000000000000000000000000000000000000000000000000000028152600401808381526020018281526020019250505060206040518083038186803b158015611e9357600080fd5b505af4158015611ea7573d6000803e3d6000fd5b505050506040513d6020811015611ebd57600080fd5b81019080805190602001909291905050501015611edd576000905061203f565b73__SafeMathLib___________________________633ef5e44573__SafeMathLib___________________________63771602f76005546006546040518363ffffffff167c0100000000000000000000000000000000000000000000000000000000028152600401808381526020018281526020019250505060206040518083038186803b158015611f6e57600080fd5b505af4158015611f82573d6000803e3d6000fd5b505050506040513d6020811015611f9857600080fd5b8101908080519060200190929190505050426040518363ffffffff167c0100000000000000000000000000000000000000000000000000000000028152600401808381526020018281526020019250505060206040518083038186803b15801561200157600080fd5b505af4158015612015573d6000803e3d6000fd5b505050506040513d602081101561202b57600080fd5b810190808051906020019092919050505090505b90565b61211b60098054600181600116156101000203166002900480601f0160208091040260200160405190810160405280929190818152602001828054600181600116156101000203166002900480156120db5780601f106120b0576101008083540402835291602001916120db565b820191906000526020600020905b8154815290600101906020018083116120be57829003601f168201915b50505050506040805190810160405280600781526020017f70656e64696e67000000000000000000000000000000000000000000000000008152506122bc565b151561212657600080fd5b600060028054905011151561213a57600080fd5b600460009054906101000a900473ffffffffffffffffffffffffffffffffffffffff1673ffffffffffffffffffffffffffffffffffffffff163373ffffffffffffffffffffffffffffffffffffffff1614151561219657600080fd5b426005819055506040805190810160405280600781526020017f62657474696e6700000000000000000000000000000000000000000000000000815250600990805190602001906121e8929190612814565b50565b60004273__SafeMathLib___________________________63771602f76005546006546040518363ffffffff167c0100000000000000000000000000000000000000000000000000000000028152600401808381526020018281526020019250505060206040518083038186803b15801561226557600080fd5b505af4158015612279573d6000803e3d6000fd5b505050506040513d602081101561228f57600080fd5b810190808051906020019092919050505010156122af57600090506122b9565b6006546005540190505b90565b6000816040516020018082805190602001908083835b6020831015156122f757805182526020820191506020810190506020830392506122d2565b6001836020036101000a0380198251168184511680821785525050505050509050019150506040516020818303038152906040526040518082805190602001908083835b602083101515612360578051825260208201915060208101905060208303925061233b565b6001836020036101000a038019825116818451168082178552505050505050905001915050604051809103902060001916836040516020018082805190602001908083835b6020831015156123ca57805182526020820191506020810190506020830392506123a5565b6001836020036101000a0380198251168184511680821785525050505050509050019150506040516020818303038152906040526040518082805190602001908083835b602083101515612433578051825260208201915060208101905060208303925061240e565b6001836020036101000a03801982511681845116808217855250505050505090500191505060405180910390206000191614905092915050565b600080600090505b600280549050811015612519578275ffffffffffffffffffffffffffffffffffffffffffff19166002828154811015156124ab57fe5b9060005260206000209060039182820401919006600a029054906101000a90047601000000000000000000000000000000000000000000000275ffffffffffffffffffffffffffffffffffffffffffff1916141561250c576001915061251e565b8080600101915050612475565b600091505b50919050565b60008090505b600f60008375ffffffffffffffffffffffffffffffffffffffffffff191675ffffffffffffffffffffffffffffffffffffffffffff191681526020019081526020016000208054905081101561263c573373ffffffffffffffffffffffffffffffffffffffff16600f60008475ffffffffffffffffffffffffffffffffffffffffffff191675ffffffffffffffffffffffffffffffffffffffffffff19168152602001908152602001600020828154811015156125e357fe5b9060005260206000200160009054906101000a900473ffffffffffffffffffffffffffffffffffffffff1673ffffffffffffffffffffffffffffffffffffffff16141561262f576126e6565b808060010191505061252a565b600f60008375ffffffffffffffffffffffffffffffffffffffffffff191675ffffffffffffffffffffffffffffffffffffffffffff191681526020019081526020016000203390806001815401808255809150509060018203906000526020600020016000909192909190916101000a81548173ffffffffffffffffffffffffffffffffffffffff021916908373ffffffffffffffffffffffffffffffffffffffff160217905550505b5050565b600080600090505b600f60008575ffffffffffffffffffffffffffffffffffffffffffff191675ffffffffffffffffffffffffffffffffffffffffffff1916815260200190815260200160002080549050811015612808578273ffffffffffffffffffffffffffffffffffffffff16600f60008675ffffffffffffffffffffffffffffffffffffffffffff191675ffffffffffffffffffffffffffffffffffffffffffff19168152602001908152602001600020828154811015156127ab57fe5b9060005260206000200160009054906101000a900473ffffffffffffffffffffffffffffffffffffffff1673ffffffffffffffffffffffffffffffffffffffff1614156127fb576001915061280d565b80806001019150506126f2565b600091505b5092915050565b828054600181600116156101000203166002900490600052602060002090601f016020900481019282601f1061285557805160ff1916838001178555612883565b82800160010185558215612883579182015b82811115612882578251825591602001919060010190612867565b5b5090506128909190612894565b5090565b6128b691905b808211156128b257600081600090555060010161289a565b5090565b905600a165627a7a7230582086acaef1559623124cd92a6478cb46d37d1700cfc134c0da60ff50832fe91e470029",
  "source": "pragma solidity ^0.4.24;\nimport \"./SafeMathLib.sol\";\n\ncontract Betting {\n    uint private Kwei = 1000;\n    uint private Szabo = 1000000000000;\n    bytes10[] private participantIds;\n    uint private poolMoney = 0;\n    address private contractOwner = msg.sender;\n    uint private bettingWindow;\n    uint private timeLock = 1 minutes;\n    bytes10 private winnerId;\n    uint private claimablePoolmoney = 0;\n    string internal tournamentStatus = \"pending\";\n    string internal gameHash;\n    string internal tournamentName;\n\n    mapping(address => mapping(bytes10 => uint)) internal bettorBetted;\n    mapping(address => mapping(bytes10 => bool)) internal claimed;\n    mapping(bytes10 => uint) internal totalBets;\n    mapping(bytes10 => address[]) internal participantBettors;\n\n    constructor(bytes10[] _participants, string _tournamentName) public {\n        setParticipants(_participants);\n        tournamentName = _tournamentName;\n    }\n\n    modifier arrayNotEmpty(bytes10[] data) {\n        require(data.length > 0);\n        _;\n    }\n\n    modifier onlyUnclaimed() {\n        require(claimed[msg.sender][winnerId] == false);\n        _;\n    }\n\n    modifier onlyOwner() {\n        require(msg.sender == contractOwner);\n        _;\n    }\n\n    modifier onlyPositiveNumber(uint number) {\n        require(number > 0);\n        _;\n    }\n\n    modifier onlyValidParticipants(bytes10 id) {\n        require(isValidParticipant(id));\n        _;\n    }\n\n    modifier mustBeWinningParticipantBettor() {\n        require(isBettorBettedFor(winnerId, msg.sender));\n        _;\n    }\n\n    modifier onlyInTimeline {\n        require(SafeMathLib.add(bettingWindow, timeLock) > now);\n        _;\n    }\n\n    modifier onlyAfterTimelock {\n        require(SafeMathLib.add(bettingWindow, timeLock) < now);\n        _;\n    }\n\n    modifier onlyPendingTournament() {\n        require(compareString(tournamentStatus, \"pending\"));\n        _;\n    }\n\n    modifier onlyOngoingTournament() {\n        require(compareString(tournamentStatus, \"ongoing\"));\n        _;\n    }\n\n    modifier onlyEndTournament {\n        require(compareString(tournamentStatus, \"ended\"));\n        _;\n    }\n\n    modifier onlyTournamentHasntEnded {\n        require(compareString(tournamentStatus, \"ended\") == false);\n        require(compareString(tournamentStatus, \"betting\") == false);\n        _;\n    }\n\n    modifier onlyBettingStatus {\n        require(compareString(tournamentStatus, \"betting\"));\n        _;\n    }\n\n    modifier mustHaveParticipants () {\n        require(participantIds.length > 0);\n        _;\n    }\n\n    function compareString(string s1, string s2) internal pure returns (bool) {\n        return (keccak256(abi.encodePacked(s1)) == keccak256(abi.encodePacked(s2)));\n    }\n\n    function getElapsedTime() internal view returns(uint256) {\n        return SafeMathLib.subtract(now, bettingWindow);\n    }\n\n    function isValidParticipant(bytes10 id) internal view returns (bool) {\n        for(uint i = 0; i < participantIds.length; i++) {\n            if (participantIds[i] == id) {\n                return true;\n            }\n        }\n        return false;\n    }\n\n    function isBettorBettedFor(bytes10 id, address addr) internal view returns (bool) {\n        for(uint i = 0; i < participantBettors[id].length; i++) {\n            if(participantBettors[id][i] == addr) {\n                return true;\n            }\n        }\n        return false;\n    }\n\n    function pushToParticipantBettors(bytes10 id) internal {\n        for(uint i = 0; i < participantBettors[id].length; i++) {\n            if(participantBettors[id][i] == msg.sender) {\n                return;\n            }\n        }\n        participantBettors[id].push(msg.sender);\n    }\n\n    function openBettingWindow()\n        public\n        onlyPendingTournament\n        mustHaveParticipants\n        onlyOwner\n    {\n        bettingWindow = now;\n        tournamentStatus = \"betting\";\n    }\n\n    function getTimeLeft() public view returns(uint256) {\n        if(SafeMathLib.add(bettingWindow, timeLock) < now) {\n            return 0;\n        } else {\n            return SafeMathLib.subtract(SafeMathLib.add(bettingWindow, timeLock), now);\n        }\n    }\n    \n    function dateToStart() public view returns(uint256) {\n        if(SafeMathLib.add(bettingWindow, timeLock) < now) {\n            return 0;\n        } else {\n            return bettingWindow + timeLock;\n        }\n    }\n\n    function setParticipants(bytes10[] _participantIds)\n      internal\n      arrayNotEmpty(_participantIds)\n      onlyOwner\n      onlyPendingTournament\n      {\n        require(_participantIds.length % 4 == 0 || _participantIds.length == 2);\n        participantIds = _participantIds;\n    }\n\n    function getPoolMoney () public view returns (uint) {\n        return SafeMathLib.divide(poolMoney, Kwei);\n    }\n\n    function bet(bytes10 _id)\n        public\n        payable\n        onlyPositiveNumber(msg.value)\n        onlyPositiveNumber(_id.length)\n        onlyValidParticipants(_id)\n        onlyBettingStatus\n        onlyInTimeline\n        mustHaveParticipants\n    returns (uint) {\n        bettorBetted[msg.sender][_id] = SafeMathLib.add(bettorBetted[msg.sender][_id], msg.value);\n        poolMoney = SafeMathLib.add(poolMoney, msg.value);\n        pushToParticipantBettors(_id);\n        return msg.value;\n    }\n\n    function getParticipantBettors(bytes10 id) public view returns (address[]) {\n        return participantBettors[id];\n    }\n\n\n    function setWinner(bytes10 id) public\n      onlyOwner\n      onlyOngoingTournament\n      onlyAfterTimelock\n      mustHaveParticipants\n      {\n        winnerId = id;\n        tournamentStatus = \"ended\";\n        claimablePoolmoney = poolMoney;\n    }\n\n    function getParticipants () public view returns(bytes10[]){\n        return participantIds;\n    }\n\n    function totalBetFor(bytes10 id) public view returns (uint total) {\n        for (uint i = 0; i < participantBettors[id].length; i++) {\n            total = SafeMathLib.add(total, bettorBetted[participantBettors[id][i]][id]);\n        }\n        return total;\n    }\n\n    function claimWinnings()\n      public\n      payable\n      onlyEndTournament\n      onlyAfterTimelock\n      mustBeWinningParticipantBettor\n      onlyUnclaimed\n      onlyPositiveNumber(claimablePoolmoney)\n      {\n        uint amount = (poolMoney*bettorBetted[msg.sender][winnerId])/totalBetFor(winnerId);\n        address(msg.sender).transfer(amount);\n        claimablePoolmoney = SafeMathLib.subtract(poolMoney, amount);\n        claimed[msg.sender][winnerId];\n    }\n\n    function startTournament() public\n        onlyOwner\n        mustHaveParticipants\n        onlyAfterTimelock\n        onlyBettingStatus\n    {\n        tournamentStatus = \"ongoing\";\n    }\n\n    function getTournamentStatus() public view returns(string) {\n        return tournamentStatus;\n    }\n\n    function getClaimablePoolMoney()\n        public\n        onlyEndTournament\n        view returns(uint) {\n        return claimablePoolmoney;\n    }\n\n    function storeGameHash(string toStore)\n      public\n      onlyOwner\n      onlyTournamentHasntEnded\n      {\n        gameHash = toStore;\n    }\n\n    function getTournamentName() public view returns(string) {\n        return tournamentName;\n    }\n\n    function getGameHash()\n      public\n      view\n      returns(string) {\n        return gameHash;\n    }\n}\n",
  "sourcePath": "/Users/skjghisole/Desktop/projectdapp/contracts/Betting.sol",
  "compiler": {
    "name": "solc",
    "version": "0.4.24+commit.e67f0147.Emscripten.clang"
  },
  "schemaVersion": "2.0.1",
  "updatedAt": "2018-09-28T04:59:42.382Z"
}