{
  "contractName": "SimpleStorage",
  "abi": [
    {
      "constant": false,
      "inputs": [
        {
          "name": "x",
          "type": "uint256"
        }
      ],
      "name": "set",
      "outputs": [],
      "payable": false,
      "stateMutability": "nonpayable",
      "type": "function"
    },
    {
      "constant": true,
      "inputs": [],
      "name": "get",
      "outputs": [
        {
          "name": "",
          "type": "uint256"
        }
      ],
      "payable": false,
      "stateMutability": "view",
      "type": "function"
    },
    {
      "constant": false,
      "inputs": [],
      "name": "incrementData",
      "outputs": [],
      "payable": false,
      "stateMutability": "nonpayable",
      "type": "function"
    }
  ],
  "bytecode": "0x608060405234801561001057600080fd5b5061010e806100206000396000f3006080604052600436106052576000357c0100000000000000000000000000000000000000000000000000000000900463ffffffff168062f2b24414605757806360fe47b114606b5780636d4ce63c146095575b600080fd5b348015606257600080fd5b50606960bd565b005b348015607657600080fd5b5060936004803603810190808035906020019092919050505060cf565b005b34801560a057600080fd5b5060a760d9565b6040518082815260200191505060405180910390f35b60016000808282540192505081905550565b8060008190555050565b600080549050905600a165627a7a72305820d731801de155f0e3ece32d84dd4b91d7ff5245f47b84f399f1940d99fa9cbc7c0029",
  "source": "pragma solidity ^0.4.24;\n\ncontract SimpleStorage {\n  uint storedData;\n\n  function set(uint x) public {\n    storedData = x;\n  }\n\n  function get() public view returns (uint) {\n    return storedData;\n  }\n\n  function incrementData() public {\n    storedData += 1;\n  }\n}\n",
  "sourcePath": "/Users/skjghisole/Desktop/TourneyMintDapp/contracts/SimpleStorage.sol",
  "compiler": {
    "name": "solc",
    "version": "0.4.24+commit.e67f0147.Emscripten.clang"
  },
  "schemaVersion": "2.0.1",
  "updatedAt": "2018-09-23T15:04:29.079Z"
}