{
  "contractName": "TournamentContractFactory",
  "abi": [
    {
      "anonymous": false,
      "inputs": [
        {
          "indexed": false,
          "name": "tournamentContract",
          "type": "address"
        }
      ],
      "name": "CreatedTournamentContract",
      "type": "event"
    },
    {
      "constant": false,
      "inputs": [
        {
          "name": "tournamentName",
          "type": "string"
        },
        {
          "name": "participants",
          "type": "bytes10[]"
        }
      ],
      "name": "createTournament",
      "outputs": [],
      "payable": false,
      "stateMutability": "nonpayable",
      "type": "function"
    },
    {
      "constant": true,
      "inputs": [],
      "name": "getAllContracts",
      "outputs": [
        {
          "name": "",
          "type": "address[]"
        }
      ],
      "payable": false,
      "stateMutability": "view",
      "type": "function"
    },
    {
      "constant": false,
      "inputs": [
        {
          "name": "someString",
          "type": "string"
        }
      ],
      "name": "saveString",
      "outputs": [],
      "payable": false,
      "stateMutability": "nonpayable",
      "type": "function"
    },
    {
      "constant": true,
      "inputs": [],
      "name": "getSavedString",
      "outputs": [
        {
          "name": "",
          "type": "string"
        }
      ],
      "payable": false,
      "stateMutability": "view",
      "type": "function"
    },
    {
      "constant": false,
      "inputs": [],
      "name": "getMessageSender",
      "outputs": [
        {
          "name": "",
          "type": "address"
        }
      ],
      "payable": false,
      "stateMutability": "nonpayable",
      "type": "function"
    }
  ],
  "bytecode": "0x60806040526040805190810160405280600581526020017f68656c6c6f0000000000000000000000000000000000000000000000000000008152506002908051906020019061004f929190610062565b5034801561005c57600080fd5b50610107565b828054600181600116156101000203166002900490600052602060002090601f016020900481019282601f106100a357805160ff19168380011785556100d1565b828001600101855582156100d1579182015b828111156100d05782518255916020019190600101906100b5565b5b5090506100de91906100e2565b5090565b61010491905b808211156101005760008160009055506001016100e8565b5090565b90565b6138bb806101166000396000f30060806040526004361062000073576000357c0100000000000000000000000000000000000000000000000000000000900463ffffffff16806318d3ce9614620000785780634bde6e4814620000e957806376167a891462000198578063812cddf214620001f2578063db52e1301462000288575b600080fd5b3480156200008557600080fd5b5062000090620002f4565b6040518080602001828103825283818151815260200191508051906020019060200280838360005b83811015620000d5578082015181840152602081019050620000b8565b505050509050019250505060405180910390f35b348015620000f657600080fd5b5062000196600480360381019080803590602001908201803590602001908080601f01602080910402602001604051908101604052809392919081815260200183838082843782019150505050505091929192908035906020019082018035906020019080806020026020016040519081016040528093929190818152602001838360200280828437820191505050505050919291929050505062000384565b005b348015620001a557600080fd5b50620001b06200062a565b604051808273ffffffffffffffffffffffffffffffffffffffff1673ffffffffffffffffffffffffffffffffffffffff16815260200191505060405180910390f35b348015620001ff57600080fd5b506200020a62000632565b6040518080602001828103825283818151815260200191508051906020019080838360005b838110156200024c5780820151818401526020810190506200022f565b50505050905090810190601f1680156200027a5780820380516001836020036101000a031916815260200191505b509250505060405180910390f35b3480156200029557600080fd5b50620002f2600480360381019080803590602001908201803590602001908080601f0160208091040260200160405190810160405280939291908181526020018383808284378201915050505050509192919290505050620006d8565b005b606060018054806020026020016040519081016040528092919081815260200182805480156200037a57602002820191906000526020600020905b8160009054906101000a900473ffffffffffffffffffffffffffffffffffffffff1673ffffffffffffffffffffffffffffffffffffffff16815260200190600101908083116200032f575b5050505050905090565b600033838362000393620006f4565b808473ffffffffffffffffffffffffffffffffffffffff1673ffffffffffffffffffffffffffffffffffffffff1681526020018060200180602001838103835285818151815260200191508051906020019080838360005b8381101562000408578082015181840152602081019050620003eb565b50505050905090810190601f168015620004365780820380516001836020036101000a031916815260200191505b50838103825284818151815260200191508051906020019060200280838360005b838110156200047457808201518184015260208101905062000457565b5050505090500195505050505050604051809103906000f0801580156200049f573d6000803e3d6000fd5b509050806000803373ffffffffffffffffffffffffffffffffffffffff1673ffffffffffffffffffffffffffffffffffffffff16815260200190815260200160002060008373ffffffffffffffffffffffffffffffffffffffff1673ffffffffffffffffffffffffffffffffffffffff16815260200190815260200160002060006101000a81548173ffffffffffffffffffffffffffffffffffffffff021916908373ffffffffffffffffffffffffffffffffffffffff16021790555060018190806001815401808255809150509060018203906000526020600020016000909192909190916101000a81548173ffffffffffffffffffffffffffffffffffffffff021916908373ffffffffffffffffffffffffffffffffffffffff160217905550507f060fcd653919c55aaa2885ec3e871400ccd239474de98651407f67283b42f73d81604051808273ffffffffffffffffffffffffffffffffffffffff1673ffffffffffffffffffffffffffffffffffffffff16815260200191505060405180910390a1505050565b600033905090565b606060028054600181600116156101000203166002900480601f016020809104026020016040519081016040528092919081815260200182805460018160011615610100020316600290048015620006ce5780601f10620006a257610100808354040283529160200191620006ce565b820191906000526020600020905b815481529060010190602001808311620006b057829003601f168201915b5050505050905090565b8060029080519060200190620006f092919062000705565b5050565b6040516130db80620007b583390190565b828054600181600116156101000203166002900490600052602060002090601f016020900481019282601f106200074857805160ff191683800117855562000779565b8280016001018555821562000779579182015b82811115620007785782518255916020019190600101906200075b565b5b5090506200078891906200078c565b5090565b620007b191905b80821115620007ad57600081600090555060010162000793565b5090565b9056006080604052600060015560b460045560006006556040805190810160405280600781526020017f70656e64696e6700000000000000000000000000000000000000000000000000815250600790805190602001906200006092919062000431565b503480156200006e57600080fd5b50604051620030db380380620030db8339810180604052810190808051906020019092919080518201929190602001805182019291905050508160099080519060200190620000bf92919062000431565b5082600260006101000a81548173ffffffffffffffffffffffffffffffffffffffff021916908373ffffffffffffffffffffffffffffffffffffffff1602179055506200011b8162000124640100000000026401000000009004565b505050620005f3565b80600081511115156200013657600080fd5b6200022460078054600181600116156101000203166002900480601f016020809104026020016040519081016040528092919081815260200182805460018160011615610100020316600290048015620001d45780601f10620001a857610100808354040283529160200191620001d4565b820191906000526020600020905b815481529060010190602001808311620001b657829003601f168201915b50505050506040805190810160405280600781526020017f70656e64696e670000000000000000000000000000000000000000000000000081525062000278640100000000026401000000009004565b15156200023057600080fd5b6000600483518115156200024057fe5b0614806200024f575060028251145b15156200025b57600080fd5b816000908051906020019062000273929190620004b8565b505050565b6000816040516020018082805190602001908083835b602083101515620002b557805182526020820191506020810190506020830392506200028e565b6001836020036101000a0380198251168184511680821785525050505050509050019150506040516020818303038152906040526040518082805190602001908083835b602083101515620003205780518252602082019150602081019050602083039250620002f9565b6001836020036101000a038019825116818451168082178552505050505050905001915050604051809103902060001916836040516020018082805190602001908083835b6020831015156200038c578051825260208201915060208101905060208303925062000365565b6001836020036101000a0380198251168184511680821785525050505050509050019150506040516020818303038152906040526040518082805190602001908083835b602083101515620003f75780518252602082019150602081019050602083039250620003d0565b6001836020036101000a03801982511681845116808217855250505050505090500191505060405180910390206000191614905092915050565b828054600181600116156101000203166002900490600052602060002090601f016020900481019282601f106200047457805160ff1916838001178555620004a5565b82800160010185558215620004a5579182015b82811115620004a457825182559160200191906001019062000487565b5b509050620004b491906200058f565b5090565b828054828255906000526020600020906002016003900481019282156200057c5791602002820160005b838211156200054257835183826101000a81548169ffffffffffffffffffff0219169083760100000000000000000000000000000000000000000000900402179055509260200192600a01602081600901049283019260010302620004e2565b80156200057a5782816101000a81549069ffffffffffffffffffff0219169055600a0160208160090104928301926001030262000542565b505b5090506200058b9190620005b7565b5090565b620005b491905b80821115620005b057600081600090555060010162000596565b5090565b90565b620005f091905b80821115620005ec57600081816101000a81549069ffffffffffffffffffff021916905550600101620005be565b5090565b90565b612ad880620006036000396000f3006080604052600436106100fc576000357c0100000000000000000000000000000000000000000000000000000000900463ffffffff16806314f54bd6146101015780631c4485341461019c578063309652ec1461022c5780635aa68ac01461025757806367e57970146102c35780636d543f6b1461032c5780637bcf6d92146103575780637bed4dd41461039d57806393211ddc146103ea5780639b487de114610444578063b401faf1146104d4578063b59fa296146104de578063bf559d111461056e578063bf862a9914610585578063c7e284b8146105ee578063e657f95f14610619578063e8a38b3214610630578063f132b62c146106c0575b600080fd5b34801561010d57600080fd5b50610145600480360381019080803575ffffffffffffffffffffffffffffffffffffffffffff191690602001909291905050506106eb565b6040518080602001828103825283818151815260200191508051906020019060200280838360005b8381101561018857808201518184015260208101905061016d565b505050509050019250505060405180910390f35b3480156101a857600080fd5b506101b16107d4565b6040518080602001828103825283818151815260200191508051906020019080838360005b838110156101f15780820151818401526020810190506101d6565b50505050905090810190601f16801561021e5780820380516001836020036101000a031916815260200191505b509250505060405180910390f35b34801561023857600080fd5b50610241610876565b6040518082815260200191505060405180910390f35b34801561026357600080fd5b5061026c61092f565b6040518080602001828103825283818151815260200191508051906020019060200280838360005b838110156102af578082015181840152602081019050610294565b505050509050019250505060405180910390f35b3480156102cf57600080fd5b5061032a600480360381019080803590602001908201803590602001908080601f01602080910402602001604051908101604052809392919081815260200183838082843782019150505050505091929192905050506109d9565b005b34801561033857600080fd5b506103416109f3565b6040518082815260200191505060405180910390f35b34801561036357600080fd5b5061039b600480360381019080803575ffffffffffffffffffffffffffffffffffffffffffff19169060200190929190505050610ae1565b005b6103d4600480360381019080803575ffffffffffffffffffffffffffffffffffffffffffff19169060200190929190505050610d86565b6040518082815260200191505060405180910390f35b3480156103f657600080fd5b5061042e600480360381019080803575ffffffffffffffffffffffffffffffffffffffffffff191690602001909291905050506111f7565b6040518082815260200191505060405180910390f35b34801561045057600080fd5b50610459611429565b6040518080602001828103825283818151815260200191508051906020019080838360005b8381101561049957808201518184015260208101905061047e565b50505050905090810190601f1680156104c65780820380516001836020036101000a031916815260200191505b509250505060405180910390f35b6104dc6114cb565b005b3480156104ea57600080fd5b506104f3611a1d565b6040518080602001828103825283818151815260200191508051906020019080838360005b83811015610533578082015181840152602081019050610518565b50505050905090810190601f1680156105605780820380516001836020036101000a031916815260200191505b509250505060405180910390f35b34801561057a57600080fd5b50610583611abf565b005b34801561059157600080fd5b506105ec600480360381019080803590602001908201803590602001908080601f0160208091040260200160405190810160405280939291908181526020018383808284378201915050505050509192919290505050611d1f565b005b3480156105fa57600080fd5b50610603611f6b565b6040518082815260200191505060405180910390f35b34801561062557600080fd5b5061062e612194565b005b34801561063c57600080fd5b5061064561233c565b6040518080602001828103825283818151815260200191508051906020019080838360005b8381101561068557808201518184015260208101905061066a565b50505050905090810190601f1680156106b25780820380516001836020036101000a031916815260200191505b509250505060405180910390f35b3480156106cc57600080fd5b506106d56123de565b6040518082815260200191505060405180910390f35b6060816106f7816124af565b151561070257600080fd5b600e60008475ffffffffffffffffffffffffffffffffffffffffffff191675ffffffffffffffffffffffffffffffffffffffffffff191681526020019081526020016000208054806020026020016040519081016040528092919081815260200182805480156107c757602002820191906000526020600020905b8160009054906101000a900473ffffffffffffffffffffffffffffffffffffffff1673ffffffffffffffffffffffffffffffffffffffff168152602001906001019080831161077d575b5050505050915050919050565b606060078054600181600116156101000203166002900480601f01602080910402602001604051908101604052809291908181526020018280546001816001161561010002031660029004801561086c5780601f106108415761010080835404028352916020019161086c565b820191906000526020600020905b81548152906001019060200180831161084f57829003601f168201915b5050505050905090565b600073__SafeMathLib___________________________63f88e9fbf6001546103e86040518363ffffffff167c0100000000000000000000000000000000000000000000000000000000028152600401808381526020018281526020019250505060206040518083038186803b1580156108ef57600080fd5b505af4158015610903573d6000803e3d6000fd5b505050506040513d602081101561091957600080fd5b8101908080519060200190929190505050905090565b606060008054806020026020016040519081016040528092919081815260200182805480156109cf57602002820191906000526020600020906000905b82829054906101000a90047601000000000000000000000000000000000000000000000275ffffffffffffffffffffffffffffffffffffffffffff1916815260200190600a019060208260090104928301926001038202915080841161096c5790505b5050505050905090565b80600a90805190602001906109ef929190612a07565b5050565b6000610ace60078054600181600116156101000203166002900480601f016020809104026020016040519081016040528092919081815260200182805460018160011615610100020316600290048015610a8e5780601f10610a6357610100808354040283529160200191610a8e565b820191906000526020600020905b815481529060010190602001808311610a7157829003601f168201915b50505050506040805190810160405280600581526020017f656e646564000000000000000000000000000000000000000000000000000000815250612566565b1515610ad957600080fd5b600654905090565b600260009054906101000a900473ffffffffffffffffffffffffffffffffffffffff1673ffffffffffffffffffffffffffffffffffffffff163373ffffffffffffffffffffffffffffffffffffffff16141515610b3d57600080fd5b610c1660078054600181600116156101000203166002900480601f016020809104026020016040519081016040528092919081815260200182805460018160011615610100020316600290048015610bd65780601f10610bab57610100808354040283529160200191610bd6565b820191906000526020600020905b815481529060010190602001808311610bb957829003601f168201915b50505050506040805190810160405280600781526020017f6f6e676f696e6700000000000000000000000000000000000000000000000000815250612566565b1515610c2157600080fd5b4273__SafeMathLib___________________________63771602f76003546004546040518363ffffffff167c0100000000000000000000000000000000000000000000000000000000028152600401808381526020018281526020019250505060206040518083038186803b158015610c9957600080fd5b505af4158015610cad573d6000803e3d6000fd5b505050506040513d6020811015610cc357600080fd5b8101908080519060200190929190505050101515610ce057600080fd5b60008080549050111515610cf357600080fd5b80600560006101000a81548169ffffffffffffffffffff0219169083760100000000000000000000000000000000000000000000900402179055506040805190810160405280600581526020017f656e64656400000000000000000000000000000000000000000000000000000081525060079080519060200190610d79929190612a07565b5060015460068190555050565b600034600081111515610d9857600080fd5b600a60ff16600081111515610dac57600080fd5b83610db6816124af565b1515610dc157600080fd5b610e9a60078054600181600116156101000203166002900480601f016020809104026020016040519081016040528092919081815260200182805460018160011615610100020316600290048015610e5a5780601f10610e2f57610100808354040283529160200191610e5a565b820191906000526020600020905b815481529060010190602001808311610e3d57829003601f168201915b50505050506040805190810160405280600781526020017f62657474696e6700000000000000000000000000000000000000000000000000815250612566565b1515610ea557600080fd5b4273__SafeMathLib___________________________63771602f76003546004546040518363ffffffff167c0100000000000000000000000000000000000000000000000000000000028152600401808381526020018281526020019250505060206040518083038186803b158015610f1d57600080fd5b505af4158015610f31573d6000803e3d6000fd5b505050506040513d6020811015610f4757600080fd5b8101908080519060200190929190505050111515610f6457600080fd5b60008080549050111515610f7757600080fd5b73__SafeMathLib___________________________63771602f7600b60003373ffffffffffffffffffffffffffffffffffffffff1673ffffffffffffffffffffffffffffffffffffffff16815260200190815260200160002060008875ffffffffffffffffffffffffffffffffffffffffffff191675ffffffffffffffffffffffffffffffffffffffffffff1916815260200190815260200160002054346040518363ffffffff167c0100000000000000000000000000000000000000000000000000000000028152600401808381526020018281526020019250505060206040518083038186803b15801561106c57600080fd5b505af4158015611080573d6000803e3d6000fd5b505050506040513d602081101561109657600080fd5b8101908080519060200190929190505050600b60003373ffffffffffffffffffffffffffffffffffffffff1673ffffffffffffffffffffffffffffffffffffffff16815260200190815260200160002060008775ffffffffffffffffffffffffffffffffffffffffffff191675ffffffffffffffffffffffffffffffffffffffffffff191681526020019081526020016000208190555073__SafeMathLib___________________________63771602f7600154346040518363ffffffff167c0100000000000000000000000000000000000000000000000000000000028152600401808381526020018281526020019250505060206040518083038186803b1580156111a257600080fd5b505af41580156111b6573d6000803e3d6000fd5b505050506040513d60208110156111cc57600080fd5b81019080805190602001909291905050506001819055506111ec85612717565b349350505050919050565b60008082611204816124af565b151561120f57600080fd5b600091505b600e60008575ffffffffffffffffffffffffffffffffffffffffffff191675ffffffffffffffffffffffffffffffffffffffffffff191681526020019081526020016000208054905082101561141f5773__SafeMathLib___________________________63771602f784600b6000600e60008a75ffffffffffffffffffffffffffffffffffffffffffff191675ffffffffffffffffffffffffffffffffffffffffffff19168152602001908152602001600020878154811015156112d557fe5b9060005260206000200160009054906101000a900473ffffffffffffffffffffffffffffffffffffffff1673ffffffffffffffffffffffffffffffffffffffff1673ffffffffffffffffffffffffffffffffffffffff16815260200190815260200160002060008875ffffffffffffffffffffffffffffffffffffffffffff191675ffffffffffffffffffffffffffffffffffffffffffff19168152602001908152602001600020546040518363ffffffff167c0100000000000000000000000000000000000000000000000000000000028152600401808381526020018281526020019250505060206040518083038186803b1580156113d557600080fd5b505af41580156113e9573d6000803e3d6000fd5b505050506040513d60208110156113ff57600080fd5b810190808051906020019092919050505092508180600101925050611214565b8292505050919050565b606060088054600181600116156101000203166002900480601f0160208091040260200160405190810160405280929190818152602001828054600181600116156101000203166002900480156114c15780601f10611496576101008083540402835291602001916114c1565b820191906000526020600020905b8154815290600101906020018083116114a457829003601f168201915b5050505050905090565b60006115a660078054600181600116156101000203166002900480601f0160208091040260200160405190810160405280929190818152602001828054600181600116156101000203166002900480156115665780601f1061153b57610100808354040283529160200191611566565b820191906000526020600020905b81548152906001019060200180831161154957829003601f168201915b50505050506040805190810160405280600581526020017f656e646564000000000000000000000000000000000000000000000000000000815250612566565b15156115b157600080fd5b4273__SafeMathLib___________________________63771602f76003546004546040518363ffffffff167c0100000000000000000000000000000000000000000000000000000000028152600401808381526020018281526020019250505060206040518083038186803b15801561162957600080fd5b505af415801561163d573d6000803e3d6000fd5b505050506040513d602081101561165357600080fd5b810190808051906020019092919050505010151561167057600080fd5b61169f600560009054906101000a900476010000000000000000000000000000000000000000000002336128dd565b15156116aa57600080fd5b60001515600c60003373ffffffffffffffffffffffffffffffffffffffff1673ffffffffffffffffffffffffffffffffffffffff1681526020019081526020016000206000600560009054906101000a90047601000000000000000000000000000000000000000000000275ffffffffffffffffffffffffffffffffffffffffffff191675ffffffffffffffffffffffffffffffffffffffffffff1916815260200190815260200160002060009054906101000a900460ff16151514151561177157600080fd5b60065460008111151561178357600080fd5b6117b1600560009054906101000a9004760100000000000000000000000000000000000000000000026111f7565b600b60003373ffffffffffffffffffffffffffffffffffffffff1673ffffffffffffffffffffffffffffffffffffffff1681526020019081526020016000206000600560009054906101000a90047601000000000000000000000000000000000000000000000275ffffffffffffffffffffffffffffffffffffffffffff191675ffffffffffffffffffffffffffffffffffffffffffff19168152602001908152602001600020546001540281151561186657fe5b0491503373ffffffffffffffffffffffffffffffffffffffff166108fc839081150290604051600060405180830381858888f193505050501580156118af573d6000803e3d6000fd5b5073__SafeMathLib___________________________633ef5e445600154846040518363ffffffff167c0100000000000000000000000000000000000000000000000000000000028152600401808381526020018281526020019250505060206040518083038186803b15801561192557600080fd5b505af4158015611939573d6000803e3d6000fd5b505050506040513d602081101561194f57600080fd5b8101908080519060200190929190505050600681905550600c60003373ffffffffffffffffffffffffffffffffffffffff1673ffffffffffffffffffffffffffffffffffffffff1681526020019081526020016000206000600560009054906101000a90047601000000000000000000000000000000000000000000000275ffffffffffffffffffffffffffffffffffffffffffff191675ffffffffffffffffffffffffffffffffffffffffffff1916815260200190815260200160002060009054906101000a9050505050565b606060098054600181600116156101000203166002900480601f016020809104026020016040519081016040528092919081815260200182805460018160011615610100020316600290048015611ab55780601f10611a8a57610100808354040283529160200191611ab5565b820191906000526020600020905b815481529060010190602001808311611a9857829003601f168201915b5050505050905090565b600260009054906101000a900473ffffffffffffffffffffffffffffffffffffffff1673ffffffffffffffffffffffffffffffffffffffff163373ffffffffffffffffffffffffffffffffffffffff16141515611b1b57600080fd5b60008080549050111515611b2e57600080fd5b4273__SafeMathLib___________________________63771602f76003546004546040518363ffffffff167c0100000000000000000000000000000000000000000000000000000000028152600401808381526020018281526020019250505060206040518083038186803b158015611ba657600080fd5b505af4158015611bba573d6000803e3d6000fd5b505050506040513d6020811015611bd057600080fd5b8101908080519060200190929190505050101515611bed57600080fd5b611cc660078054600181600116156101000203166002900480601f016020809104026020016040519081016040528092919081815260200182805460018160011615610100020316600290048015611c865780601f10611c5b57610100808354040283529160200191611c86565b820191906000526020600020905b815481529060010190602001808311611c6957829003601f168201915b50505050506040805190810160405280600781526020017f62657474696e6700000000000000000000000000000000000000000000000000815250612566565b1515611cd157600080fd5b6040805190810160405280600781526020017f6f6e676f696e670000000000000000000000000000000000000000000000000081525060079080519060200190611d1c929190612a07565b50565b600260009054906101000a900473ffffffffffffffffffffffffffffffffffffffff1673ffffffffffffffffffffffffffffffffffffffff163373ffffffffffffffffffffffffffffffffffffffff16141515611d7b57600080fd5b60001515611e5860078054600181600116156101000203166002900480601f016020809104026020016040519081016040528092919081815260200182805460018160011615610100020316600290048015611e185780601f10611ded57610100808354040283529160200191611e18565b820191906000526020600020905b815481529060010190602001808311611dfb57829003601f168201915b50505050506040805190810160405280600581526020017f656e646564000000000000000000000000000000000000000000000000000000815250612566565b1515141515611e6657600080fd5b60001515611f4360078054600181600116156101000203166002900480601f016020809104026020016040519081016040528092919081815260200182805460018160011615610100020316600290048015611f035780601f10611ed857610100808354040283529160200191611f03565b820191906000526020600020905b815481529060010190602001808311611ee657829003601f168201915b50505050506040805190810160405280600781526020017f62657474696e6700000000000000000000000000000000000000000000000000815250612566565b1515141515611f5157600080fd5b8060089080519060200190611f67929190612a07565b5050565b60004273__SafeMathLib___________________________63771602f76003546004546040518363ffffffff167c0100000000000000000000000000000000000000000000000000000000028152600401808381526020018281526020019250505060206040518083038186803b158015611fe557600080fd5b505af4158015611ff9573d6000803e3d6000fd5b505050506040513d602081101561200f57600080fd5b8101908080519060200190929190505050101561202f5760009050612191565b73__SafeMathLib___________________________633ef5e44573__SafeMathLib___________________________63771602f76003546004546040518363ffffffff167c0100000000000000000000000000000000000000000000000000000000028152600401808381526020018281526020019250505060206040518083038186803b1580156120c057600080fd5b505af41580156120d4573d6000803e3d6000fd5b505050506040513d60208110156120ea57600080fd5b8101908080519060200190929190505050426040518363ffffffff167c0100000000000000000000000000000000000000000000000000000000028152600401808381526020018281526020019250505060206040518083038186803b15801561215357600080fd5b505af4158015612167573d6000803e3d6000fd5b505050506040513d602081101561217d57600080fd5b810190808051906020019092919050505090505b90565b61226d60078054600181600116156101000203166002900480601f01602080910402602001604051908101604052809291908181526020018280546001816001161561010002031660029004801561222d5780601f106122025761010080835404028352916020019161222d565b820191906000526020600020905b81548152906001019060200180831161221057829003601f168201915b50505050506040805190810160405280600781526020017f70656e64696e6700000000000000000000000000000000000000000000000000815250612566565b151561227857600080fd5b6000808054905011151561228b57600080fd5b600260009054906101000a900473ffffffffffffffffffffffffffffffffffffffff1673ffffffffffffffffffffffffffffffffffffffff163373ffffffffffffffffffffffffffffffffffffffff161415156122e757600080fd5b426003819055506040805190810160405280600781526020017f62657474696e670000000000000000000000000000000000000000000000000081525060079080519060200190612339929190612a07565b50565b6060600a8054600181600116156101000203166002900480601f0160208091040260200160405190810160405280929190818152602001828054600181600116156101000203166002900480156123d45780601f106123a9576101008083540402835291602001916123d4565b820191906000526020600020905b8154815290600101906020018083116123b757829003601f168201915b5050505050905090565b60004273__SafeMathLib___________________________63771602f76003546004546040518363ffffffff167c0100000000000000000000000000000000000000000000000000000000028152600401808381526020018281526020019250505060206040518083038186803b15801561245857600080fd5b505af415801561246c573d6000803e3d6000fd5b505050506040513d602081101561248257600080fd5b810190808051906020019092919050505010156124a257600090506124ac565b6004546003540190505b90565b600080600090505b60008054905081101561255b578275ffffffffffffffffffffffffffffffffffffffffffff19166000828154811015156124ed57fe5b9060005260206000209060039182820401919006600a029054906101000a90047601000000000000000000000000000000000000000000000275ffffffffffffffffffffffffffffffffffffffffffff1916141561254e5760019150612560565b80806001019150506124b7565b600091505b50919050565b6000816040516020018082805190602001908083835b6020831015156125a1578051825260208201915060208101905060208303925061257c565b6001836020036101000a0380198251168184511680821785525050505050509050019150506040516020818303038152906040526040518082805190602001908083835b60208310151561260a57805182526020820191506020810190506020830392506125e5565b6001836020036101000a038019825116818451168082178552505050505050905001915050604051809103902060001916836040516020018082805190602001908083835b602083101515612674578051825260208201915060208101905060208303925061264f565b6001836020036101000a0380198251168184511680821785525050505050509050019150506040516020818303038152906040526040518082805190602001908083835b6020831015156126dd57805182526020820191506020810190506020830392506126b8565b6001836020036101000a03801982511681845116808217855250505050505090500191505060405180910390206000191614905092915050565b60008090505b600e60008375ffffffffffffffffffffffffffffffffffffffffffff191675ffffffffffffffffffffffffffffffffffffffffffff191681526020019081526020016000208054905081101561282f573373ffffffffffffffffffffffffffffffffffffffff16600e60008475ffffffffffffffffffffffffffffffffffffffffffff191675ffffffffffffffffffffffffffffffffffffffffffff19168152602001908152602001600020828154811015156127d657fe5b9060005260206000200160009054906101000a900473ffffffffffffffffffffffffffffffffffffffff1673ffffffffffffffffffffffffffffffffffffffff161415612822576128d9565b808060010191505061271d565b600e60008375ffffffffffffffffffffffffffffffffffffffffffff191675ffffffffffffffffffffffffffffffffffffffffffff191681526020019081526020016000203390806001815401808255809150509060018203906000526020600020016000909192909190916101000a81548173ffffffffffffffffffffffffffffffffffffffff021916908373ffffffffffffffffffffffffffffffffffffffff160217905550505b5050565b600080600090505b600e60008575ffffffffffffffffffffffffffffffffffffffffffff191675ffffffffffffffffffffffffffffffffffffffffffff19168152602001908152602001600020805490508110156129fb578273ffffffffffffffffffffffffffffffffffffffff16600e60008675ffffffffffffffffffffffffffffffffffffffffffff191675ffffffffffffffffffffffffffffffffffffffffffff191681526020019081526020016000208281548110151561299e57fe5b9060005260206000200160009054906101000a900473ffffffffffffffffffffffffffffffffffffffff1673ffffffffffffffffffffffffffffffffffffffff1614156129ee5760019150612a00565b80806001019150506128e5565b600091505b5092915050565b828054600181600116156101000203166002900490600052602060002090601f016020900481019282601f10612a4857805160ff1916838001178555612a76565b82800160010185558215612a76579182015b82811115612a75578251825591602001919060010190612a5a565b5b509050612a839190612a87565b5090565b612aa991905b80821115612aa5576000816000905550600101612a8d565b5090565b905600a165627a7a72305820e11ae886326cc6912c6f2eafb3442dbf363d95ccb3e60dca5c8810ceb6500b810029a165627a7a723058208ab92e2dec8a5d6c1c87f8f4b92096bc9dd2e8621945d159337423bbba63f4900029",
  "source": "pragma solidity ^0.4.18;\nimport \"./Tournament.sol\";\n\ncontract TournamentContractFactory {\n\tmapping(address => mapping(address => address)) tournamentContracts;\n    address[] contractAddresses;\n    string savedString = 'hello';\n    address tournamentAddress;\n\n    event CreatedTournamentContract(\n        address tournamentContract\n    );\n\n\tfunction createTournament(string tournamentName, bytes10[] participants) public {\n\t\taddress newContract = new Tournament(msg.sender, tournamentName, participants);\n\t\ttournamentContracts[msg.sender][newContract] = newContract;\n\t\tcontractAddresses.push(newContract);\n        emit CreatedTournamentContract(newContract);\n\t}\n\n    function getAllContracts() public view returns (address[]) {\n        return contractAddresses;\n    }\n\n    function saveString(string someString) public {\n    \tsavedString = someString;\n    }\n\n    function getSavedString() public view returns(string) {\n    \treturn savedString;\n    }\n\n    function getMessageSender() public returns(address) {\n    \treturn msg.sender;\n    }\n}",
  "sourcePath": "/Users/skjghisole/Desktop/tourneyMintServer/contracts/TournamentContractFactory.sol",
  "compiler": {
    "name": "solc",
    "version": "0.4.24+commit.e67f0147.Emscripten.clang"
  },
  "schemaVersion": "2.0.1",
  "updatedAt": "2018-10-17T06:30:43.580Z"
}