{
  "contractName": "Tournament",
  "abi": [
    {
      "inputs": [
        {
          "name": "owner",
          "type": "address"
        },
        {
          "name": "_tournamentName",
          "type": "string"
        }
      ],
      "payable": false,
      "stateMutability": "nonpayable",
      "type": "constructor"
    },
    {
      "constant": false,
      "inputs": [],
      "name": "openBettingWindow",
      "outputs": [],
      "payable": false,
      "stateMutability": "nonpayable",
      "type": "function"
    },
    {
      "constant": true,
      "inputs": [],
      "name": "getTimeLeft",
      "outputs": [
        {
          "name": "",
          "type": "uint256"
        }
      ],
      "payable": false,
      "stateMutability": "view",
      "type": "function"
    },
    {
      "constant": true,
      "inputs": [],
      "name": "dateToStart",
      "outputs": [
        {
          "name": "",
          "type": "uint256"
        }
      ],
      "payable": false,
      "stateMutability": "view",
      "type": "function"
    },
    {
      "constant": false,
      "inputs": [
        {
          "name": "_participantIds",
          "type": "bytes10[]"
        }
      ],
      "name": "setParticipants",
      "outputs": [],
      "payable": false,
      "stateMutability": "nonpayable",
      "type": "function"
    },
    {
      "constant": true,
      "inputs": [],
      "name": "getPoolMoney",
      "outputs": [
        {
          "name": "",
          "type": "uint256"
        }
      ],
      "payable": false,
      "stateMutability": "view",
      "type": "function"
    },
    {
      "constant": false,
      "inputs": [
        {
          "name": "_id",
          "type": "bytes10"
        }
      ],
      "name": "bet",
      "outputs": [
        {
          "name": "",
          "type": "uint256"
        }
      ],
      "payable": true,
      "stateMutability": "payable",
      "type": "function"
    },
    {
      "constant": true,
      "inputs": [
        {
          "name": "id",
          "type": "bytes10"
        }
      ],
      "name": "getParticipantBettors",
      "outputs": [
        {
          "name": "",
          "type": "address[]"
        }
      ],
      "payable": false,
      "stateMutability": "view",
      "type": "function"
    },
    {
      "constant": false,
      "inputs": [
        {
          "name": "id",
          "type": "bytes10"
        }
      ],
      "name": "setWinner",
      "outputs": [],
      "payable": false,
      "stateMutability": "nonpayable",
      "type": "function"
    },
    {
      "constant": true,
      "inputs": [],
      "name": "getParticipants",
      "outputs": [
        {
          "name": "",
          "type": "bytes10[]"
        }
      ],
      "payable": false,
      "stateMutability": "view",
      "type": "function"
    },
    {
      "constant": true,
      "inputs": [
        {
          "name": "id",
          "type": "bytes10"
        }
      ],
      "name": "totalBetFor",
      "outputs": [
        {
          "name": "total",
          "type": "uint256"
        }
      ],
      "payable": false,
      "stateMutability": "view",
      "type": "function"
    },
    {
      "constant": false,
      "inputs": [],
      "name": "claimWinnings",
      "outputs": [],
      "payable": true,
      "stateMutability": "payable",
      "type": "function"
    },
    {
      "constant": false,
      "inputs": [],
      "name": "startTournament",
      "outputs": [],
      "payable": false,
      "stateMutability": "nonpayable",
      "type": "function"
    },
    {
      "constant": true,
      "inputs": [],
      "name": "getTournamentStatus",
      "outputs": [
        {
          "name": "",
          "type": "string"
        }
      ],
      "payable": false,
      "stateMutability": "view",
      "type": "function"
    },
    {
      "constant": true,
      "inputs": [],
      "name": "getClaimablePoolMoney",
      "outputs": [
        {
          "name": "",
          "type": "uint256"
        }
      ],
      "payable": false,
      "stateMutability": "view",
      "type": "function"
    },
    {
      "constant": false,
      "inputs": [
        {
          "name": "toStore",
          "type": "string"
        }
      ],
      "name": "storeGameHash",
      "outputs": [],
      "payable": false,
      "stateMutability": "nonpayable",
      "type": "function"
    },
    {
      "constant": true,
      "inputs": [],
      "name": "getTournamentName",
      "outputs": [
        {
          "name": "",
          "type": "string"
        }
      ],
      "payable": false,
      "stateMutability": "view",
      "type": "function"
    },
    {
      "constant": true,
      "inputs": [],
      "name": "getGameHash",
      "outputs": [
        {
          "name": "",
          "type": "string"
        }
      ],
      "payable": false,
      "stateMutability": "view",
      "type": "function"
    }
  ],
  "bytecode": "0x6080604052600060015560b460045560006006556040805190810160405280600781526020017f70656e64696e67000000000000000000000000000000000000000000000000008152506007908051906020019062000060929190620000ff565b503480156200006e57600080fd5b5060405162002dd938038062002dd983398101806040528101908080519060200190929190805182019291905050508060099080519060200190620000b5929190620000ff565b5081600260006101000a81548173ffffffffffffffffffffffffffffffffffffffff021916908373ffffffffffffffffffffffffffffffffffffffff1602179055505050620001ae565b828054600181600116156101000203166002900490600052602060002090601f016020900481019282601f106200014257805160ff191683800117855562000173565b8280016001018555821562000173579182015b828111156200017257825182559160200191906001019062000155565b5b50905062000182919062000186565b5090565b620001ab91905b80821115620001a75760008160009055506001016200018d565b5090565b90565b612c1b80620001be6000396000f3006080604052600436106100f1576000357c0100000000000000000000000000000000000000000000000000000000900463ffffffff16806314f54bd6146100f65780631c44853414610191578063309652ec146102215780635aa68ac01461024c5780636d543f6b146102b85780637bcf6d92146102e35780637bed4dd41461032957806393211ddc146103765780639b487de1146103d0578063b401faf114610460578063b59fa2961461046a578063bf559d11146104fa578063bf862a9914610511578063c7e284b81461057a578063e657f95f146105a5578063f132b62c146105bc578063f76dc045146105e7575b600080fd5b34801561010257600080fd5b5061013a600480360381019080803575ffffffffffffffffffffffffffffffffffffffffffff1916906020019092919050505061064d565b6040518080602001828103825283818151815260200191508051906020019060200280838360005b8381101561017d578082015181840152602081019050610162565b505050509050019250505060405180910390f35b34801561019d57600080fd5b506101a6610736565b6040518080602001828103825283818151815260200191508051906020019080838360005b838110156101e65780820151818401526020810190506101cb565b50505050905090810190601f1680156102135780820380516001836020036101000a031916815260200191505b509250505060405180910390f35b34801561022d57600080fd5b506102366107d8565b6040518082815260200191505060405180910390f35b34801561025857600080fd5b50610261610891565b6040518080602001828103825283818151815260200191508051906020019060200280838360005b838110156102a4578082015181840152602081019050610289565b505050509050019250505060405180910390f35b3480156102c457600080fd5b506102cd61093b565b6040518082815260200191505060405180910390f35b3480156102ef57600080fd5b50610327600480360381019080803575ffffffffffffffffffffffffffffffffffffffffffff19169060200190929190505050610a29565b005b610360600480360381019080803575ffffffffffffffffffffffffffffffffffffffffffff19169060200190929190505050610cce565b6040518082815260200191505060405180910390f35b34801561038257600080fd5b506103ba600480360381019080803575ffffffffffffffffffffffffffffffffffffffffffff1916906020019092919050505061113f565b6040518082815260200191505060405180910390f35b3480156103dc57600080fd5b506103e5611371565b6040518080602001828103825283818151815260200191508051906020019080838360005b8381101561042557808201518184015260208101905061040a565b50505050905090810190601f1680156104525780820380516001836020036101000a031916815260200191505b509250505060405180910390f35b610468611413565b005b34801561047657600080fd5b5061047f611965565b6040518080602001828103825283818151815260200191508051906020019080838360005b838110156104bf5780820151818401526020810190506104a4565b50505050905090810190601f1680156104ec5780820380516001836020036101000a031916815260200191505b509250505060405180910390f35b34801561050657600080fd5b5061050f611a07565b005b34801561051d57600080fd5b50610578600480360381019080803590602001908201803590602001908080601f0160208091040260200160405190810160405280939291908181526020018383808284378201915050505050509192919290505050611c67565b005b34801561058657600080fd5b5061058f611eb3565b6040518082815260200191505060405180910390f35b3480156105b157600080fd5b506105ba6120dc565b005b3480156105c857600080fd5b506105d1612284565b6040518082815260200191505060405180910390f35b3480156105f357600080fd5b5061064b60048036038101908080359060200190820180359060200190808060200260200160405190810160405280939291908181526020018383602002808284378201915050505050509192919290505050612355565b005b606081610659816124e9565b151561066457600080fd5b600d60008475ffffffffffffffffffffffffffffffffffffffffffff191675ffffffffffffffffffffffffffffffffffffffffffff1916815260200190815260200160002080548060200260200160405190810160405280929190818152602001828054801561072957602002820191906000526020600020905b8160009054906101000a900473ffffffffffffffffffffffffffffffffffffffff1673ffffffffffffffffffffffffffffffffffffffff16815260200190600101908083116106df575b5050505050915050919050565b606060078054600181600116156101000203166002900480601f0160208091040260200160405190810160405280929190818152602001828054600181600116156101000203166002900480156107ce5780601f106107a3576101008083540402835291602001916107ce565b820191906000526020600020905b8154815290600101906020018083116107b157829003601f168201915b5050505050905090565b600073__SafeMathLib___________________________63f88e9fbf6001546103e86040518363ffffffff167c0100000000000000000000000000000000000000000000000000000000028152600401808381526020018281526020019250505060206040518083038186803b15801561085157600080fd5b505af4158015610865573d6000803e3d6000fd5b505050506040513d602081101561087b57600080fd5b8101908080519060200190929190505050905090565b6060600080548060200260200160405190810160405280929190818152602001828054801561093157602002820191906000526020600020906000905b82829054906101000a90047601000000000000000000000000000000000000000000000275ffffffffffffffffffffffffffffffffffffffffffff1916815260200190600a01906020826009010492830192600103820291508084116108ce5790505b5050505050905090565b6000610a1660078054600181600116156101000203166002900480601f0160208091040260200160405190810160405280929190818152602001828054600181600116156101000203166002900480156109d65780601f106109ab576101008083540402835291602001916109d6565b820191906000526020600020905b8154815290600101906020018083116109b957829003601f168201915b50505050506040805190810160405280600581526020017f656e6465640000000000000000000000000000000000000000000000000000008152506125a0565b1515610a2157600080fd5b600654905090565b600260009054906101000a900473ffffffffffffffffffffffffffffffffffffffff1673ffffffffffffffffffffffffffffffffffffffff163373ffffffffffffffffffffffffffffffffffffffff16141515610a8557600080fd5b610b5e60078054600181600116156101000203166002900480601f016020809104026020016040519081016040528092919081815260200182805460018160011615610100020316600290048015610b1e5780601f10610af357610100808354040283529160200191610b1e565b820191906000526020600020905b815481529060010190602001808311610b0157829003601f168201915b50505050506040805190810160405280600781526020017f6f6e676f696e67000000000000000000000000000000000000000000000000008152506125a0565b1515610b6957600080fd5b4273__SafeMathLib___________________________63771602f76003546004546040518363ffffffff167c0100000000000000000000000000000000000000000000000000000000028152600401808381526020018281526020019250505060206040518083038186803b158015610be157600080fd5b505af4158015610bf5573d6000803e3d6000fd5b505050506040513d6020811015610c0b57600080fd5b8101908080519060200190929190505050101515610c2857600080fd5b60008080549050111515610c3b57600080fd5b80600560006101000a81548169ffffffffffffffffffff0219169083760100000000000000000000000000000000000000000000900402179055506040805190810160405280600581526020017f656e64656400000000000000000000000000000000000000000000000000000081525060079080519060200190610cc1929190612a41565b5060015460068190555050565b600034600081111515610ce057600080fd5b600a60ff16600081111515610cf457600080fd5b83610cfe816124e9565b1515610d0957600080fd5b610de260078054600181600116156101000203166002900480601f016020809104026020016040519081016040528092919081815260200182805460018160011615610100020316600290048015610da25780601f10610d7757610100808354040283529160200191610da2565b820191906000526020600020905b815481529060010190602001808311610d8557829003601f168201915b50505050506040805190810160405280600781526020017f62657474696e67000000000000000000000000000000000000000000000000008152506125a0565b1515610ded57600080fd5b4273__SafeMathLib___________________________63771602f76003546004546040518363ffffffff167c0100000000000000000000000000000000000000000000000000000000028152600401808381526020018281526020019250505060206040518083038186803b158015610e6557600080fd5b505af4158015610e79573d6000803e3d6000fd5b505050506040513d6020811015610e8f57600080fd5b8101908080519060200190929190505050111515610eac57600080fd5b60008080549050111515610ebf57600080fd5b73__SafeMathLib___________________________63771602f7600a60003373ffffffffffffffffffffffffffffffffffffffff1673ffffffffffffffffffffffffffffffffffffffff16815260200190815260200160002060008875ffffffffffffffffffffffffffffffffffffffffffff191675ffffffffffffffffffffffffffffffffffffffffffff1916815260200190815260200160002054346040518363ffffffff167c0100000000000000000000000000000000000000000000000000000000028152600401808381526020018281526020019250505060206040518083038186803b158015610fb457600080fd5b505af4158015610fc8573d6000803e3d6000fd5b505050506040513d6020811015610fde57600080fd5b8101908080519060200190929190505050600a60003373ffffffffffffffffffffffffffffffffffffffff1673ffffffffffffffffffffffffffffffffffffffff16815260200190815260200160002060008775ffffffffffffffffffffffffffffffffffffffffffff191675ffffffffffffffffffffffffffffffffffffffffffff191681526020019081526020016000208190555073__SafeMathLib___________________________63771602f7600154346040518363ffffffff167c0100000000000000000000000000000000000000000000000000000000028152600401808381526020018281526020019250505060206040518083038186803b1580156110ea57600080fd5b505af41580156110fe573d6000803e3d6000fd5b505050506040513d602081101561111457600080fd5b810190808051906020019092919050505060018190555061113485612751565b349350505050919050565b6000808261114c816124e9565b151561115757600080fd5b600091505b600d60008575ffffffffffffffffffffffffffffffffffffffffffff191675ffffffffffffffffffffffffffffffffffffffffffff19168152602001908152602001600020805490508210156113675773__SafeMathLib___________________________63771602f784600a6000600d60008a75ffffffffffffffffffffffffffffffffffffffffffff191675ffffffffffffffffffffffffffffffffffffffffffff191681526020019081526020016000208781548110151561121d57fe5b9060005260206000200160009054906101000a900473ffffffffffffffffffffffffffffffffffffffff1673ffffffffffffffffffffffffffffffffffffffff1673ffffffffffffffffffffffffffffffffffffffff16815260200190815260200160002060008875ffffffffffffffffffffffffffffffffffffffffffff191675ffffffffffffffffffffffffffffffffffffffffffff19168152602001908152602001600020546040518363ffffffff167c0100000000000000000000000000000000000000000000000000000000028152600401808381526020018281526020019250505060206040518083038186803b15801561131d57600080fd5b505af4158015611331573d6000803e3d6000fd5b505050506040513d602081101561134757600080fd5b81019080805190602001909291905050509250818060010192505061115c565b8292505050919050565b606060088054600181600116156101000203166002900480601f0160208091040260200160405190810160405280929190818152602001828054600181600116156101000203166002900480156114095780601f106113de57610100808354040283529160200191611409565b820191906000526020600020905b8154815290600101906020018083116113ec57829003601f168201915b5050505050905090565b60006114ee60078054600181600116156101000203166002900480601f0160208091040260200160405190810160405280929190818152602001828054600181600116156101000203166002900480156114ae5780601f10611483576101008083540402835291602001916114ae565b820191906000526020600020905b81548152906001019060200180831161149157829003601f168201915b50505050506040805190810160405280600581526020017f656e6465640000000000000000000000000000000000000000000000000000008152506125a0565b15156114f957600080fd5b4273__SafeMathLib___________________________63771602f76003546004546040518363ffffffff167c0100000000000000000000000000000000000000000000000000000000028152600401808381526020018281526020019250505060206040518083038186803b15801561157157600080fd5b505af4158015611585573d6000803e3d6000fd5b505050506040513d602081101561159b57600080fd5b81019080805190602001909291905050501015156115b857600080fd5b6115e7600560009054906101000a90047601000000000000000000000000000000000000000000000233612917565b15156115f257600080fd5b60001515600b60003373ffffffffffffffffffffffffffffffffffffffff1673ffffffffffffffffffffffffffffffffffffffff1681526020019081526020016000206000600560009054906101000a90047601000000000000000000000000000000000000000000000275ffffffffffffffffffffffffffffffffffffffffffff191675ffffffffffffffffffffffffffffffffffffffffffff1916815260200190815260200160002060009054906101000a900460ff1615151415156116b957600080fd5b6006546000811115156116cb57600080fd5b6116f9600560009054906101000a90047601000000000000000000000000000000000000000000000261113f565b600a60003373ffffffffffffffffffffffffffffffffffffffff1673ffffffffffffffffffffffffffffffffffffffff1681526020019081526020016000206000600560009054906101000a90047601000000000000000000000000000000000000000000000275ffffffffffffffffffffffffffffffffffffffffffff191675ffffffffffffffffffffffffffffffffffffffffffff1916815260200190815260200160002054600154028115156117ae57fe5b0491503373ffffffffffffffffffffffffffffffffffffffff166108fc839081150290604051600060405180830381858888f193505050501580156117f7573d6000803e3d6000fd5b5073__SafeMathLib___________________________633ef5e445600154846040518363ffffffff167c0100000000000000000000000000000000000000000000000000000000028152600401808381526020018281526020019250505060206040518083038186803b15801561186d57600080fd5b505af4158015611881573d6000803e3d6000fd5b505050506040513d602081101561189757600080fd5b8101908080519060200190929190505050600681905550600b60003373ffffffffffffffffffffffffffffffffffffffff1673ffffffffffffffffffffffffffffffffffffffff1681526020019081526020016000206000600560009054906101000a90047601000000000000000000000000000000000000000000000275ffffffffffffffffffffffffffffffffffffffffffff191675ffffffffffffffffffffffffffffffffffffffffffff1916815260200190815260200160002060009054906101000a9050505050565b606060098054600181600116156101000203166002900480601f0160208091040260200160405190810160405280929190818152602001828054600181600116156101000203166002900480156119fd5780601f106119d2576101008083540402835291602001916119fd565b820191906000526020600020905b8154815290600101906020018083116119e057829003601f168201915b5050505050905090565b600260009054906101000a900473ffffffffffffffffffffffffffffffffffffffff1673ffffffffffffffffffffffffffffffffffffffff163373ffffffffffffffffffffffffffffffffffffffff16141515611a6357600080fd5b60008080549050111515611a7657600080fd5b4273__SafeMathLib___________________________63771602f76003546004546040518363ffffffff167c0100000000000000000000000000000000000000000000000000000000028152600401808381526020018281526020019250505060206040518083038186803b158015611aee57600080fd5b505af4158015611b02573d6000803e3d6000fd5b505050506040513d6020811015611b1857600080fd5b8101908080519060200190929190505050101515611b3557600080fd5b611c0e60078054600181600116156101000203166002900480601f016020809104026020016040519081016040528092919081815260200182805460018160011615610100020316600290048015611bce5780601f10611ba357610100808354040283529160200191611bce565b820191906000526020600020905b815481529060010190602001808311611bb157829003601f168201915b50505050506040805190810160405280600781526020017f62657474696e67000000000000000000000000000000000000000000000000008152506125a0565b1515611c1957600080fd5b6040805190810160405280600781526020017f6f6e676f696e670000000000000000000000000000000000000000000000000081525060079080519060200190611c64929190612a41565b50565b600260009054906101000a900473ffffffffffffffffffffffffffffffffffffffff1673ffffffffffffffffffffffffffffffffffffffff163373ffffffffffffffffffffffffffffffffffffffff16141515611cc357600080fd5b60001515611da060078054600181600116156101000203166002900480601f016020809104026020016040519081016040528092919081815260200182805460018160011615610100020316600290048015611d605780601f10611d3557610100808354040283529160200191611d60565b820191906000526020600020905b815481529060010190602001808311611d4357829003601f168201915b50505050506040805190810160405280600581526020017f656e6465640000000000000000000000000000000000000000000000000000008152506125a0565b1515141515611dae57600080fd5b60001515611e8b60078054600181600116156101000203166002900480601f016020809104026020016040519081016040528092919081815260200182805460018160011615610100020316600290048015611e4b5780601f10611e2057610100808354040283529160200191611e4b565b820191906000526020600020905b815481529060010190602001808311611e2e57829003601f168201915b50505050506040805190810160405280600781526020017f62657474696e67000000000000000000000000000000000000000000000000008152506125a0565b1515141515611e9957600080fd5b8060089080519060200190611eaf929190612a41565b5050565b60004273__SafeMathLib___________________________63771602f76003546004546040518363ffffffff167c0100000000000000000000000000000000000000000000000000000000028152600401808381526020018281526020019250505060206040518083038186803b158015611f2d57600080fd5b505af4158015611f41573d6000803e3d6000fd5b505050506040513d6020811015611f5757600080fd5b81019080805190602001909291905050501015611f7757600090506120d9565b73__SafeMathLib___________________________633ef5e44573__SafeMathLib___________________________63771602f76003546004546040518363ffffffff167c0100000000000000000000000000000000000000000000000000000000028152600401808381526020018281526020019250505060206040518083038186803b15801561200857600080fd5b505af415801561201c573d6000803e3d6000fd5b505050506040513d602081101561203257600080fd5b8101908080519060200190929190505050426040518363ffffffff167c0100000000000000000000000000000000000000000000000000000000028152600401808381526020018281526020019250505060206040518083038186803b15801561209b57600080fd5b505af41580156120af573d6000803e3d6000fd5b505050506040513d60208110156120c557600080fd5b810190808051906020019092919050505090505b90565b6121b560078054600181600116156101000203166002900480601f0160208091040260200160405190810160405280929190818152602001828054600181600116156101000203166002900480156121755780601f1061214a57610100808354040283529160200191612175565b820191906000526020600020905b81548152906001019060200180831161215857829003601f168201915b50505050506040805190810160405280600781526020017f70656e64696e67000000000000000000000000000000000000000000000000008152506125a0565b15156121c057600080fd5b600080805490501115156121d357600080fd5b600260009054906101000a900473ffffffffffffffffffffffffffffffffffffffff1673ffffffffffffffffffffffffffffffffffffffff163373ffffffffffffffffffffffffffffffffffffffff1614151561222f57600080fd5b426003819055506040805190810160405280600781526020017f62657474696e670000000000000000000000000000000000000000000000000081525060079080519060200190612281929190612a41565b50565b60004273__SafeMathLib___________________________63771602f76003546004546040518363ffffffff167c0100000000000000000000000000000000000000000000000000000000028152600401808381526020018281526020019250505060206040518083038186803b1580156122fe57600080fd5b505af4158015612312573d6000803e3d6000fd5b505050506040513d602081101561232857600080fd5b810190808051906020019092919050505010156123485760009050612352565b6004546003540190505b90565b806000815111151561236657600080fd5b600260009054906101000a900473ffffffffffffffffffffffffffffffffffffffff1673ffffffffffffffffffffffffffffffffffffffff163373ffffffffffffffffffffffffffffffffffffffff161415156123c257600080fd5b61249b60078054600181600116156101000203166002900480601f01602080910402602001604051908101604052809291908181526020018280546001816001161561010002031660029004801561245b5780601f106124305761010080835404028352916020019161245b565b820191906000526020600020905b81548152906001019060200180831161243e57829003601f168201915b50505050506040805190810160405280600781526020017f70656e64696e67000000000000000000000000000000000000000000000000008152506125a0565b15156124a657600080fd5b6000600483518115156124b557fe5b0614806124c3575060028251145b15156124ce57600080fd5b81600090805190602001906124e4929190612ac1565b505050565b600080600090505b600080549050811015612595578275ffffffffffffffffffffffffffffffffffffffffffff191660008281548110151561252757fe5b9060005260206000209060039182820401919006600a029054906101000a90047601000000000000000000000000000000000000000000000275ffffffffffffffffffffffffffffffffffffffffffff19161415612588576001915061259a565b80806001019150506124f1565b600091505b50919050565b6000816040516020018082805190602001908083835b6020831015156125db57805182526020820191506020810190506020830392506125b6565b6001836020036101000a0380198251168184511680821785525050505050509050019150506040516020818303038152906040526040518082805190602001908083835b602083101515612644578051825260208201915060208101905060208303925061261f565b6001836020036101000a038019825116818451168082178552505050505050905001915050604051809103902060001916836040516020018082805190602001908083835b6020831015156126ae5780518252602082019150602081019050602083039250612689565b6001836020036101000a0380198251168184511680821785525050505050509050019150506040516020818303038152906040526040518082805190602001908083835b60208310151561271757805182526020820191506020810190506020830392506126f2565b6001836020036101000a03801982511681845116808217855250505050505090500191505060405180910390206000191614905092915050565b60008090505b600d60008375ffffffffffffffffffffffffffffffffffffffffffff191675ffffffffffffffffffffffffffffffffffffffffffff1916815260200190815260200160002080549050811015612869573373ffffffffffffffffffffffffffffffffffffffff16600d60008475ffffffffffffffffffffffffffffffffffffffffffff191675ffffffffffffffffffffffffffffffffffffffffffff191681526020019081526020016000208281548110151561281057fe5b9060005260206000200160009054906101000a900473ffffffffffffffffffffffffffffffffffffffff1673ffffffffffffffffffffffffffffffffffffffff16141561285c57612913565b8080600101915050612757565b600d60008375ffffffffffffffffffffffffffffffffffffffffffff191675ffffffffffffffffffffffffffffffffffffffffffff191681526020019081526020016000203390806001815401808255809150509060018203906000526020600020016000909192909190916101000a81548173ffffffffffffffffffffffffffffffffffffffff021916908373ffffffffffffffffffffffffffffffffffffffff160217905550505b5050565b600080600090505b600d60008575ffffffffffffffffffffffffffffffffffffffffffff191675ffffffffffffffffffffffffffffffffffffffffffff1916815260200190815260200160002080549050811015612a35578273ffffffffffffffffffffffffffffffffffffffff16600d60008675ffffffffffffffffffffffffffffffffffffffffffff191675ffffffffffffffffffffffffffffffffffffffffffff19168152602001908152602001600020828154811015156129d857fe5b9060005260206000200160009054906101000a900473ffffffffffffffffffffffffffffffffffffffff1673ffffffffffffffffffffffffffffffffffffffff161415612a285760019150612a3a565b808060010191505061291f565b600091505b5092915050565b828054600181600116156101000203166002900490600052602060002090601f016020900481019282601f10612a8257805160ff1916838001178555612ab0565b82800160010185558215612ab0579182015b82811115612aaf578251825591602001919060010190612a94565b5b509050612abd9190612b91565b5090565b82805482825590600052602060002090600201600390048101928215612b805791602002820160005b83821115612b4857835183826101000a81548169ffffffffffffffffffff0219169083760100000000000000000000000000000000000000000000900402179055509260200192600a01602081600901049283019260010302612aea565b8015612b7e5782816101000a81549069ffffffffffffffffffff0219169055600a01602081600901049283019260010302612b48565b505b509050612b8d9190612bb6565b5090565b612bb391905b80821115612baf576000816000905550600101612b97565b5090565b90565b612bec91905b80821115612be857600081816101000a81549069ffffffffffffffffffff021916905550600101612bbc565b5090565b905600a165627a7a72305820a30aa238e7df497f83a95851c531db991545d121ddb014b5239f479fb21904bf0029",
  "source": "pragma solidity ^0.4.24;\nimport \"./SafeMathLib.sol\";\n\ncontract Tournament {\n    bytes10[] private participantIds;\n    uint private poolMoney = 0;\n    address private contractOwner;\n    uint private bettingWindow;\n    uint private timeLock = 3 minutes;\n    bytes10 private winnerId;\n    uint private claimablePoolmoney = 0;\n    string internal tournamentStatus = \"pending\";\n    string internal gameHash;\n    string internal tournamentName;\n\n    mapping(address => mapping(bytes10 => uint)) internal bettorBetted;\n    mapping(address => mapping(bytes10 => bool)) internal claimed;\n    mapping(bytes10 => uint) internal totalBets;\n    mapping(bytes10 => address[]) internal participantBettors;\n\n    constructor(address owner, string _tournamentName) public {\n        tournamentName = _tournamentName;\n        contractOwner = owner;\n    }\n\n    modifier arrayNotEmpty(bytes10[] data) {\n        require(data.length > 0);\n        _;\n    }\n\n    modifier onlyUnclaimed() {\n        require(claimed[msg.sender][winnerId] == false);\n        _;\n    }\n\n    modifier onlyOwner() {\n        require(msg.sender == contractOwner);\n        _;\n    }\n\n    modifier onlyPositiveNumber(uint number) {\n        require(number > 0);\n        _;\n    }\n\n    modifier onlyValidParticipants(bytes10 id) {\n        require(isValidParticipant(id));\n        _;\n    }\n\n    modifier mustBeWinningParticipantBettor() {\n        require(isBettorBettedFor(winnerId, msg.sender));\n        _;\n    }\n\n    modifier onlyInTimeline {\n        require(SafeMathLib.add(bettingWindow, timeLock) > now);\n        _;\n    }\n\n    modifier onlyAfterTimelock {\n        require(SafeMathLib.add(bettingWindow, timeLock) < now);\n        _;\n    }\n\n    modifier onlyPendingTournament() {\n        require(compareString(tournamentStatus, \"pending\"));\n        _;\n    }\n\n    modifier onlyOngoingTournament() {\n        require(compareString(tournamentStatus, \"ongoing\"));\n        _;\n    }\n\n    modifier onlyEndTournament {\n        require(compareString(tournamentStatus, \"ended\"));\n        _;\n    }\n\n    modifier onlyTournamentHasntEnded {\n        require(compareString(tournamentStatus, \"ended\") == false);\n        require(compareString(tournamentStatus, \"betting\") == false);\n        _;\n    }\n\n    modifier onlyBettingStatus {\n        require(compareString(tournamentStatus, \"betting\"));\n        _;\n    }\n\n    modifier mustHaveParticipants () {\n        require(participantIds.length > 0);\n        _;\n    }\n\n    function compareString(string s1, string s2) internal pure returns (bool) {\n        return (keccak256(abi.encodePacked(s1)) == keccak256(abi.encodePacked(s2)));\n    }\n\n    function getElapsedTime() internal view returns(uint256) {\n        return SafeMathLib.subtract(now, bettingWindow);\n    }\n\n    function isValidParticipant(bytes10 id) internal view returns (bool) {\n        for(uint i = 0; i < participantIds.length; i++) {\n            if (participantIds[i] == id) {\n                return true;\n            }\n        }\n        return false;\n    }\n\n    function isBettorBettedFor(bytes10 id, address addr) internal view returns (bool) {\n        for(uint i = 0; i < participantBettors[id].length; i++) {\n            if(participantBettors[id][i] == addr) {\n                return true;\n            }\n        }\n        return false;\n    }\n\n    function pushToParticipantBettors(bytes10 id) internal {\n        for(uint i = 0; i < participantBettors[id].length; i++) {\n            if(participantBettors[id][i] == msg.sender) {\n                return;\n            }\n        }\n        participantBettors[id].push(msg.sender);\n    }\n\n    function openBettingWindow()\n        public\n        onlyPendingTournament\n        mustHaveParticipants\n        onlyOwner\n    {\n        bettingWindow = now;\n        tournamentStatus = \"betting\";\n    }\n\n    function getTimeLeft() public view returns(uint256) {\n        if(SafeMathLib.add(bettingWindow, timeLock) < now) {\n            return 0;\n        } else {\n            return SafeMathLib.subtract(SafeMathLib.add(bettingWindow, timeLock), now);\n        }\n    }\n    \n    function dateToStart() public view returns(uint256) {\n        if(SafeMathLib.add(bettingWindow, timeLock) < now) {\n            return 0;\n        } else {\n            return bettingWindow + timeLock;\n        }\n    }\n\n    function setParticipants(bytes10[] _participantIds)\n      public\n      arrayNotEmpty(_participantIds)\n      onlyOwner\n      onlyPendingTournament\n      {\n        require(_participantIds.length % 4 == 0 || _participantIds.length == 2);\n        participantIds = _participantIds;\n    }\n\n    function getPoolMoney () public view returns (uint) {\n        return SafeMathLib.divide(poolMoney, 1000);\n    }\n\n    function bet(bytes10 _id)\n        public\n        payable\n        onlyPositiveNumber(msg.value)\n        onlyPositiveNumber(_id.length)\n        onlyValidParticipants(_id)\n        onlyBettingStatus\n        onlyInTimeline\n        mustHaveParticipants\n    returns (uint) {\n        bettorBetted[msg.sender][_id] = SafeMathLib.add(bettorBetted[msg.sender][_id], msg.value);\n        poolMoney = SafeMathLib.add(poolMoney, msg.value);\n        pushToParticipantBettors(_id);\n        return msg.value;\n    }\n\n    function getParticipantBettors(bytes10 id) onlyValidParticipants(id) public view returns (address[]) {\n        return participantBettors[id];\n    }\n\n\n    function setWinner(bytes10 id) public\n      onlyOwner\n      onlyOngoingTournament\n      onlyAfterTimelock\n      mustHaveParticipants\n      {\n        winnerId = id;\n        tournamentStatus = \"ended\";\n        claimablePoolmoney = poolMoney;\n    }\n\n    function getParticipants () public view returns(bytes10[]){\n        return participantIds;\n    }\n\n    function totalBetFor(bytes10 id) public \n        onlyValidParticipants(id)\n        view returns (uint total) {\n        for (uint i = 0; i < participantBettors[id].length; i++) {\n            total = SafeMathLib.add(total, bettorBetted[participantBettors[id][i]][id]);\n        }\n        return total;\n    }\n\n    function claimWinnings()\n      public\n      payable\n      onlyEndTournament\n      onlyAfterTimelock\n      mustBeWinningParticipantBettor\n      onlyUnclaimed\n      onlyPositiveNumber(claimablePoolmoney)\n      {\n        uint amount = (poolMoney*bettorBetted[msg.sender][winnerId])/totalBetFor(winnerId);\n        address(msg.sender).transfer(amount);\n        claimablePoolmoney = SafeMathLib.subtract(poolMoney, amount);\n        claimed[msg.sender][winnerId];\n    }\n\n    function startTournament() public\n        onlyOwner\n        mustHaveParticipants\n        onlyAfterTimelock\n        onlyBettingStatus\n    {\n        tournamentStatus = \"ongoing\";\n    }\n\n    function getTournamentStatus() public view returns(string) {\n        return tournamentStatus;\n    }\n\n    function getClaimablePoolMoney()\n        public\n        onlyEndTournament\n        view returns(uint) {\n        return claimablePoolmoney;\n    }\n\n    function storeGameHash(string toStore)\n      public\n      onlyOwner\n      onlyTournamentHasntEnded\n      {\n        gameHash = toStore;\n    }\n\n    function getTournamentName() public view returns(string) {\n        return tournamentName;\n    }\n\n    function getGameHash()\n      public\n      view\n      returns(string) {\n        return gameHash;\n    }\n}",
  "sourcePath": "/Users/skjghisole/Desktop/tourneyMintServer/contracts/Tournament.sol",
  "compiler": {
    "name": "solc",
    "version": "0.4.24+commit.e67f0147.Emscripten.clang"
  },
  "schemaVersion": "2.0.1",
  "updatedAt": "2018-10-16T09:29:37.278Z"
}