{
  "contractName": "TournamentContractFactory",
  "abi": [
    {
      "anonymous": false,
      "inputs": [
        {
          "indexed": false,
          "name": "tournamentContract",
          "type": "address"
        }
      ],
      "name": "CreatedTournamentContract",
      "type": "event"
    },
    {
      "constant": false,
      "inputs": [
        {
          "name": "tournamentName",
          "type": "string"
        },
        {
          "name": "participants",
          "type": "bytes10[]"
        }
      ],
      "name": "createTournament",
      "outputs": [],
      "payable": false,
      "stateMutability": "nonpayable",
      "type": "function"
    },
    {
      "constant": true,
      "inputs": [],
      "name": "getAllContracts",
      "outputs": [
        {
          "name": "",
          "type": "address[]"
        }
      ],
      "payable": false,
      "stateMutability": "view",
      "type": "function"
    }
  ],
  "bytecode": "0x608060405234801561001057600080fd5b506133cb806100206000396000f30060806040526004361061004c576000357c0100000000000000000000000000000000000000000000000000000000900463ffffffff16806318d3ce96146100515780634bde6e48146100bd575b600080fd5b34801561005d57600080fd5b50610066610169565b6040518080602001828103825283818151815260200191508051906020019060200280838360005b838110156100a957808201518184015260208101905061008e565b505050509050019250505060405180910390f35b3480156100c957600080fd5b50610167600480360381019080803590602001908201803590602001908080601f0160208091040260200160405190810160405280939291908181526020018383808284378201915050505050509192919290803590602001908201803590602001908080602002602001604051908101604052809392919081815260200183836020028082843782019150505050505091929192905050506101f7565b005b606060018054806020026020016040519081016040528092919081815260200182805480156101ed57602002820191906000526020600020905b8160009054906101000a900473ffffffffffffffffffffffffffffffffffffffff1673ffffffffffffffffffffffffffffffffffffffff16815260200190600101908083116101a3575b5050505050905090565b6000338383610204610495565b808473ffffffffffffffffffffffffffffffffffffffff1673ffffffffffffffffffffffffffffffffffffffff1681526020018060200180602001838103835285818151815260200191508051906020019080838360005b8381101561027757808201518184015260208101905061025c565b50505050905090810190601f1680156102a45780820380516001836020036101000a031916815260200191505b50838103825284818151815260200191508051906020019060200280838360005b838110156102e05780820151818401526020810190506102c5565b5050505090500195505050505050604051809103906000f08015801561030a573d6000803e3d6000fd5b509050806000803373ffffffffffffffffffffffffffffffffffffffff1673ffffffffffffffffffffffffffffffffffffffff16815260200190815260200160002060008373ffffffffffffffffffffffffffffffffffffffff1673ffffffffffffffffffffffffffffffffffffffff16815260200190815260200160002060006101000a81548173ffffffffffffffffffffffffffffffffffffffff021916908373ffffffffffffffffffffffffffffffffffffffff16021790555060018190806001815401808255809150509060018203906000526020600020016000909192909190916101000a81548173ffffffffffffffffffffffffffffffffffffffff021916908373ffffffffffffffffffffffffffffffffffffffff160217905550507f060fcd653919c55aaa2885ec3e871400ccd239474de98651407f67283b42f73d81604051808273ffffffffffffffffffffffffffffffffffffffff1673ffffffffffffffffffffffffffffffffffffffff16815260200191505060405180910390a1505050565b604051612efa806104a68339019056006080604052600060015560b460045560006006556040805190810160405280600781526020017f70656e64696e6700000000000000000000000000000000000000000000000000815250600790805190602001906200006092919062000431565b503480156200006e57600080fd5b5060405162002efa38038062002efa8339810180604052810190808051906020019092919080518201929190602001805182019291905050508160099080519060200190620000bf92919062000431565b5082600260006101000a81548173ffffffffffffffffffffffffffffffffffffffff021916908373ffffffffffffffffffffffffffffffffffffffff1602179055506200011b8162000124640100000000026401000000009004565b505050620005f3565b80600081511115156200013657600080fd5b6200022460078054600181600116156101000203166002900480601f016020809104026020016040519081016040528092919081815260200182805460018160011615610100020316600290048015620001d45780601f10620001a857610100808354040283529160200191620001d4565b820191906000526020600020905b815481529060010190602001808311620001b657829003601f168201915b50505050506040805190810160405280600781526020017f70656e64696e670000000000000000000000000000000000000000000000000081525062000278640100000000026401000000009004565b15156200023057600080fd5b6000600483518115156200024057fe5b0614806200024f575060028251145b15156200025b57600080fd5b816000908051906020019062000273929190620004b8565b505050565b6000816040516020018082805190602001908083835b602083101515620002b557805182526020820191506020810190506020830392506200028e565b6001836020036101000a0380198251168184511680821785525050505050509050019150506040516020818303038152906040526040518082805190602001908083835b602083101515620003205780518252602082019150602081019050602083039250620002f9565b6001836020036101000a038019825116818451168082178552505050505050905001915050604051809103902060001916836040516020018082805190602001908083835b6020831015156200038c578051825260208201915060208101905060208303925062000365565b6001836020036101000a0380198251168184511680821785525050505050509050019150506040516020818303038152906040526040518082805190602001908083835b602083101515620003f75780518252602082019150602081019050602083039250620003d0565b6001836020036101000a03801982511681845116808217855250505050505090500191505060405180910390206000191614905092915050565b828054600181600116156101000203166002900490600052602060002090601f016020900481019282601f106200047457805160ff1916838001178555620004a5565b82800160010185558215620004a5579182015b82811115620004a457825182559160200191906001019062000487565b5b509050620004b491906200058f565b5090565b828054828255906000526020600020906002016003900481019282156200057c5791602002820160005b838211156200054257835183826101000a81548169ffffffffffffffffffff0219169083760100000000000000000000000000000000000000000000900402179055509260200192600a01602081600901049283019260010302620004e2565b80156200057a5782816101000a81549069ffffffffffffffffffff0219169055600a0160208160090104928301926001030262000542565b505b5090506200058b9190620005b7565b5090565b620005b491905b80821115620005b057600081600090555060010162000596565b5090565b90565b620005f091905b80821115620005ec57600081816101000a81549069ffffffffffffffffffff021916905550600101620005be565b5090565b90565b6128f780620006036000396000f3006080604052600436106100db576000357c0100000000000000000000000000000000000000000000000000000000900463ffffffff16806314f54bd6146100e05780631c4485341461017b578063309652ec1461020b5780635aa68ac0146102365780636d543f6b146102a25780637bcf6d92146102cd5780637bed4dd41461031357806393211ddc1461034c5780639b487de1146103a6578063b401faf114610436578063b59fa29614610440578063bf559d11146104d0578063bf862a99146104e7578063e657f95f14610550578063f132b62c14610567575b600080fd5b3480156100ec57600080fd5b50610124600480360381019080803575ffffffffffffffffffffffffffffffffffffffffffff19169060200190929190505050610592565b6040518080602001828103825283818151815260200191508051906020019060200280838360005b8381101561016757808201518184015260208101905061014c565b505050509050019250505060405180910390f35b34801561018757600080fd5b5061019061067b565b6040518080602001828103825283818151815260200191508051906020019080838360005b838110156101d05780820151818401526020810190506101b5565b50505050905090810190601f1680156101fd5780820380516001836020036101000a031916815260200191505b509250505060405180910390f35b34801561021757600080fd5b5061022061071d565b6040518082815260200191505060405180910390f35b34801561024257600080fd5b5061024b610727565b6040518080602001828103825283818151815260200191508051906020019060200280838360005b8381101561028e578082015181840152602081019050610273565b505050509050019250505060405180910390f35b3480156102ae57600080fd5b506102b76107d1565b6040518082815260200191505060405180910390f35b3480156102d957600080fd5b50610311600480360381019080803575ffffffffffffffffffffffffffffffffffffffffffff191690602001909291905050506108bf565b005b61034a600480360381019080803575ffffffffffffffffffffffffffffffffffffffffffff19169060200190929190505050610bbf565b005b34801561035857600080fd5b50610390600480360381019080803575ffffffffffffffffffffffffffffffffffffffffffff19169060200190929190505050610fed565b6040518082815260200191505060405180910390f35b3480156103b257600080fd5b506103bb61121f565b6040518080602001828103825283818151815260200191508051906020019080838360005b838110156103fb5780820151818401526020810190506103e0565b50505050905090810190601f1680156104285780820380516001836020036101000a031916815260200191505b509250505060405180910390f35b61043e6112c1565b005b34801561044c57600080fd5b506104556118b7565b6040518080602001828103825283818151815260200191508051906020019080838360005b8381101561049557808201518184015260208101905061047a565b50505050905090810190601f1680156104c25780820380516001836020036101000a031916815260200191505b509250505060405180910390f35b3480156104dc57600080fd5b506104e5611959565b005b3480156104f357600080fd5b5061054e600480360381019080803590602001908201803590602001908080601f0160208091040260200160405190810160405280939291908181526020018383808284378201915050505050509192919290505050611bab565b005b34801561055c57600080fd5b50610565611e93565b005b34801561057357600080fd5b5061057c61202d565b6040518082815260200191505060405180910390f35b60608161059e8161203b565b15156105a957600080fd5b600d60008475ffffffffffffffffffffffffffffffffffffffffffff191675ffffffffffffffffffffffffffffffffffffffffffff1916815260200190815260200160002080548060200260200160405190810160405280929190818152602001828054801561066e57602002820191906000526020600020905b8160009054906101000a900473ffffffffffffffffffffffffffffffffffffffff1673ffffffffffffffffffffffffffffffffffffffff1681526020019060010190808311610624575b5050505050915050919050565b606060078054600181600116156101000203166002900480601f0160208091040260200160405190810160405280929190818152602001828054600181600116156101000203166002900480156107135780601f106106e857610100808354040283529160200191610713565b820191906000526020600020905b8154815290600101906020018083116106f657829003601f168201915b5050505050905090565b6000600154905090565b606060008054806020026020016040519081016040528092919081815260200182805480156107c757602002820191906000526020600020906000905b82829054906101000a90047601000000000000000000000000000000000000000000000275ffffffffffffffffffffffffffffffffffffffffffff1916815260200190600a01906020826009010492830192600103820291508084116107645790505b5050505050905090565b60006108ac60078054600181600116156101000203166002900480601f01602080910402602001604051908101604052809291908181526020018280546001816001161561010002031660029004801561086c5780601f106108415761010080835404028352916020019161086c565b820191906000526020600020905b81548152906001019060200180831161084f57829003601f168201915b50505050506040805190810160405280600581526020017f656e6465640000000000000000000000000000000000000000000000000000008152506120f2565b15156108b757600080fd5b600654905090565b600260009054906101000a900473ffffffffffffffffffffffffffffffffffffffff1673ffffffffffffffffffffffffffffffffffffffff163373ffffffffffffffffffffffffffffffffffffffff1614151561091b57600080fd5b6109f460078054600181600116156101000203166002900480601f0160208091040260200160405190810160405280929190818152602001828054600181600116156101000203166002900480156109b45780601f10610989576101008083540402835291602001916109b4565b820191906000526020600020905b81548152906001019060200180831161099757829003601f168201915b50505050506040805190810160405280600781526020017f6f6e676f696e67000000000000000000000000000000000000000000000000008152506120f2565b15156109ff57600080fd5b4273__SafeMathLib___________________________63771602f76003546004546040518363ffffffff167c0100000000000000000000000000000000000000000000000000000000028152600401808381526020018281526020019250505060206040518083038186803b158015610a7757600080fd5b505af4158015610a8b573d6000803e3d6000fd5b505050506040513d6020811015610aa157600080fd5b8101908080519060200190929190505050101515610abe57600080fd5b60008080549050111515610ad157600080fd5b80600560006101000a81548169ffffffffffffffffffff021916908376010000000000000000000000000000000000000000000090040217905550610b4a6040805190810160405280600581526020017f656e6465640000000000000000000000000000000000000000000000000000008152506122a3565b6001546006819055507f7ae3b47e8a5b07370c09500f52410dc250fe6a61d883dc0d1008f5ba7cdf363d81604051808275ffffffffffffffffffffffffffffffffffffffffffff191675ffffffffffffffffffffffffffffffffffffffffffff1916815260200191505060405180910390a150565b34600081111515610bcf57600080fd5b600a60ff16600081111515610be357600080fd5b82610bed8161203b565b1515610bf857600080fd5b610cd160078054600181600116156101000203166002900480601f016020809104026020016040519081016040528092919081815260200182805460018160011615610100020316600290048015610c915780601f10610c6657610100808354040283529160200191610c91565b820191906000526020600020905b815481529060010190602001808311610c7457829003601f168201915b50505050506040805190810160405280600781526020017f62657474696e67000000000000000000000000000000000000000000000000008152506120f2565b1515610cdc57600080fd5b4273__SafeMathLib___________________________63771602f76003546004546040518363ffffffff167c0100000000000000000000000000000000000000000000000000000000028152600401808381526020018281526020019250505060206040518083038186803b158015610d5457600080fd5b505af4158015610d68573d6000803e3d6000fd5b505050506040513d6020811015610d7e57600080fd5b8101908080519060200190929190505050111515610d9b57600080fd5b60008080549050111515610dae57600080fd5b73__SafeMathLib___________________________63771602f7600a60003373ffffffffffffffffffffffffffffffffffffffff1673ffffffffffffffffffffffffffffffffffffffff16815260200190815260200160002060008775ffffffffffffffffffffffffffffffffffffffffffff191675ffffffffffffffffffffffffffffffffffffffffffff1916815260200190815260200160002054346040518363ffffffff167c0100000000000000000000000000000000000000000000000000000000028152600401808381526020018281526020019250505060206040518083038186803b158015610ea357600080fd5b505af4158015610eb7573d6000803e3d6000fd5b505050506040513d6020811015610ecd57600080fd5b8101908080519060200190929190505050600a60003373ffffffffffffffffffffffffffffffffffffffff1673ffffffffffffffffffffffffffffffffffffffff16815260200190815260200160002060008675ffffffffffffffffffffffffffffffffffffffffffff191675ffffffffffffffffffffffffffffffffffffffffffff1916815260200190815260200160002081905550610f6d34612444565b610f7684612536565b7f74dd504e3c298350a3c9e8cb57b639d3a3b9d1904f67e4f56ade03106c219a4f8434604051808375ffffffffffffffffffffffffffffffffffffffffffff191675ffffffffffffffffffffffffffffffffffffffffffff191681526020018281526020019250505060405180910390a150505050565b60008082610ffa8161203b565b151561100557600080fd5b600091505b600d60008575ffffffffffffffffffffffffffffffffffffffffffff191675ffffffffffffffffffffffffffffffffffffffffffff19168152602001908152602001600020805490508210156112155773__SafeMathLib___________________________63771602f784600a6000600d60008a75ffffffffffffffffffffffffffffffffffffffffffff191675ffffffffffffffffffffffffffffffffffffffffffff19168152602001908152602001600020878154811015156110cb57fe5b9060005260206000200160009054906101000a900473ffffffffffffffffffffffffffffffffffffffff1673ffffffffffffffffffffffffffffffffffffffff1673ffffffffffffffffffffffffffffffffffffffff16815260200190815260200160002060008875ffffffffffffffffffffffffffffffffffffffffffff191675ffffffffffffffffffffffffffffffffffffffffffff19168152602001908152602001600020546040518363ffffffff167c0100000000000000000000000000000000000000000000000000000000028152600401808381526020018281526020019250505060206040518083038186803b1580156111cb57600080fd5b505af41580156111df573d6000803e3d6000fd5b505050506040513d60208110156111f557600080fd5b81019080805190602001909291905050509250818060010192505061100a565b8292505050919050565b606060088054600181600116156101000203166002900480601f0160208091040260200160405190810160405280929190818152602001828054600181600116156101000203166002900480156112b75780601f1061128c576101008083540402835291602001916112b7565b820191906000526020600020905b81548152906001019060200180831161129a57829003601f168201915b5050505050905090565b600061139c60078054600181600116156101000203166002900480601f01602080910402602001604051908101604052809291908181526020018280546001816001161561010002031660029004801561135c5780601f106113315761010080835404028352916020019161135c565b820191906000526020600020905b81548152906001019060200180831161133f57829003601f168201915b50505050506040805190810160405280600581526020017f656e6465640000000000000000000000000000000000000000000000000000008152506120f2565b15156113a757600080fd5b4273__SafeMathLib___________________________63771602f76003546004546040518363ffffffff167c0100000000000000000000000000000000000000000000000000000000028152600401808381526020018281526020019250505060206040518083038186803b15801561141f57600080fd5b505af4158015611433573d6000803e3d6000fd5b505050506040513d602081101561144957600080fd5b810190808051906020019092919050505010151561146657600080fd5b611495600560009054906101000a900476010000000000000000000000000000000000000000000002336126fc565b15156114a057600080fd5b60001515600b60003373ffffffffffffffffffffffffffffffffffffffff1673ffffffffffffffffffffffffffffffffffffffff1681526020019081526020016000206000600560009054906101000a90047601000000000000000000000000000000000000000000000275ffffffffffffffffffffffffffffffffffffffffffff191675ffffffffffffffffffffffffffffffffffffffffffff1916815260200190815260200160002060009054906101000a900460ff16151514151561156757600080fd5b60065460008111151561157957600080fd5b6115a7600560009054906101000a900476010000000000000000000000000000000000000000000002610fed565b600a60003373ffffffffffffffffffffffffffffffffffffffff1673ffffffffffffffffffffffffffffffffffffffff1681526020019081526020016000206000600560009054906101000a90047601000000000000000000000000000000000000000000000275ffffffffffffffffffffffffffffffffffffffffffff191675ffffffffffffffffffffffffffffffffffffffffffff19168152602001908152602001600020546001540281151561165c57fe5b0491503373ffffffffffffffffffffffffffffffffffffffff166108fc839081150290604051600060405180830381858888f193505050501580156116a5573d6000803e3d6000fd5b5073__SafeMathLib___________________________633ef5e445600654846040518363ffffffff167c0100000000000000000000000000000000000000000000000000000000028152600401808381526020018281526020019250505060206040518083038186803b15801561171b57600080fd5b505af415801561172f573d6000803e3d6000fd5b505050506040513d602081101561174557600080fd5b8101908080519060200190929190505050600681905550600b60003373ffffffffffffffffffffffffffffffffffffffff1673ffffffffffffffffffffffffffffffffffffffff1681526020019081526020016000206000600560009054906101000a90047601000000000000000000000000000000000000000000000275ffffffffffffffffffffffffffffffffffffffffffff191675ffffffffffffffffffffffffffffffffffffffffffff1916815260200190815260200160002060009054906101000a9050507fe5c55f7578cf0d5a5b67635ab20bd9d1c8ec5b91044a31743c6fe041a26894ad6006546040518082815260200191505060405180910390a17f4cf4172233556e29a7d59e170f63333fb269c04a386f72b9ad078b67bd86baeb3383604051808373ffffffffffffffffffffffffffffffffffffffff1673ffffffffffffffffffffffffffffffffffffffff1681526020018281526020019250505060405180910390a15050565b606060098054600181600116156101000203166002900480601f01602080910402602001604051908101604052809291908181526020018280546001816001161561010002031660029004801561194f5780601f106119245761010080835404028352916020019161194f565b820191906000526020600020905b81548152906001019060200180831161193257829003601f168201915b5050505050905090565b600260009054906101000a900473ffffffffffffffffffffffffffffffffffffffff1673ffffffffffffffffffffffffffffffffffffffff163373ffffffffffffffffffffffffffffffffffffffff161415156119b557600080fd5b600080805490501115156119c857600080fd5b4273__SafeMathLib___________________________63771602f76003546004546040518363ffffffff167c0100000000000000000000000000000000000000000000000000000000028152600401808381526020018281526020019250505060206040518083038186803b158015611a4057600080fd5b505af4158015611a54573d6000803e3d6000fd5b505050506040513d6020811015611a6a57600080fd5b8101908080519060200190929190505050101515611a8757600080fd5b611b6060078054600181600116156101000203166002900480601f016020809104026020016040519081016040528092919081815260200182805460018160011615610100020316600290048015611b205780601f10611af557610100808354040283529160200191611b20565b820191906000526020600020905b815481529060010190602001808311611b0357829003601f168201915b50505050506040805190810160405280600781526020017f62657474696e67000000000000000000000000000000000000000000000000008152506120f2565b1515611b6b57600080fd5b611ba96040805190810160405280600781526020017f6f6e676f696e67000000000000000000000000000000000000000000000000008152506122a3565b565b600260009054906101000a900473ffffffffffffffffffffffffffffffffffffffff1673ffffffffffffffffffffffffffffffffffffffff163373ffffffffffffffffffffffffffffffffffffffff16141515611c0757600080fd5b60001515611ce460078054600181600116156101000203166002900480601f016020809104026020016040519081016040528092919081815260200182805460018160011615610100020316600290048015611ca45780601f10611c7957610100808354040283529160200191611ca4565b820191906000526020600020905b815481529060010190602001808311611c8757829003601f168201915b50505050506040805190810160405280600581526020017f656e6465640000000000000000000000000000000000000000000000000000008152506120f2565b1515141515611cf257600080fd5b60001515611dcf60078054600181600116156101000203166002900480601f016020809104026020016040519081016040528092919081815260200182805460018160011615610100020316600290048015611d8f5780601f10611d6457610100808354040283529160200191611d8f565b820191906000526020600020905b815481529060010190602001808311611d7257829003601f168201915b50505050506040805190810160405280600781526020017f62657474696e67000000000000000000000000000000000000000000000000008152506120f2565b1515141515611ddd57600080fd5b8060089080519060200190611df3929190612826565b507f6c91987680c799ab0f6b677b2c251de89f995d25a4a62a6076c6aba5b2250866816040518080602001828103825283818151815260200191508051906020019080838360005b83811015611e56578082015181840152602081019050611e3b565b50505050905090810190601f168015611e835780820380516001836020036101000a031916815260200191505b509250505060405180910390a150565b611f6c60078054600181600116156101000203166002900480601f016020809104026020016040519081016040528092919081815260200182805460018160011615610100020316600290048015611f2c5780601f10611f0157610100808354040283529160200191611f2c565b820191906000526020600020905b815481529060010190602001808311611f0f57829003601f168201915b50505050506040805190810160405280600781526020017f70656e64696e67000000000000000000000000000000000000000000000000008152506120f2565b1515611f7757600080fd5b60008080549050111515611f8a57600080fd5b600260009054906101000a900473ffffffffffffffffffffffffffffffffffffffff1673ffffffffffffffffffffffffffffffffffffffff163373ffffffffffffffffffffffffffffffffffffffff16141515611fe657600080fd5b4260038190555061202b6040805190810160405280600781526020017f62657474696e67000000000000000000000000000000000000000000000000008152506122a3565b565b600060045460035401905090565b600080600090505b6000805490508110156120e7578275ffffffffffffffffffffffffffffffffffffffffffff191660008281548110151561207957fe5b9060005260206000209060039182820401919006600a029054906101000a90047601000000000000000000000000000000000000000000000275ffffffffffffffffffffffffffffffffffffffffffff191614156120da57600191506120ec565b8080600101915050612043565b600091505b50919050565b6000816040516020018082805190602001908083835b60208310151561212d5780518252602082019150602081019050602083039250612108565b6001836020036101000a0380198251168184511680821785525050505050509050019150506040516020818303038152906040526040518082805190602001908083835b6020831015156121965780518252602082019150602081019050602083039250612171565b6001836020036101000a038019825116818451168082178552505050505050905001915050604051809103902060001916836040516020018082805190602001908083835b60208310151561220057805182526020820191506020810190506020830392506121db565b6001836020036101000a0380198251168184511680821785525050505050509050019150506040516020818303038152906040526040518082805190602001908083835b6020831015156122695780518252602082019150602081019050602083039250612244565b6001836020036101000a03801982511681845116808217855250505050505090500191505060405180910390206000191614905092915050565b6000151561238060078054600181600116156101000203166002900480601f0160208091040260200160405190810160405280929190818152602001828054600181600116156101000203166002900480156123405780601f1061231557610100808354040283529160200191612340565b820191906000526020600020905b81548152906001019060200180831161232357829003601f168201915b50505050506040805190810160405280600581526020017f656e6465640000000000000000000000000000000000000000000000000000008152506120f2565b151514151561238e57600080fd5b80600790805190602001906123a4929190612826565b507f8f1eba3fb0072e89106e090a8e4ff657eca296ff0b7786ad86f52f5a6eaad164816040518080602001828103825283818151815260200191508051906020019080838360005b838110156124075780820151818401526020810190506123ec565b50505050905090810190601f1680156124345780820380516001836020036101000a031916815260200191505b509250505060405180910390a150565b73__SafeMathLib___________________________63771602f7600154836040518363ffffffff167c0100000000000000000000000000000000000000000000000000000000028152600401808381526020018281526020019250505060206040518083038186803b1580156124b957600080fd5b505af41580156124cd573d6000803e3d6000fd5b505050506040513d60208110156124e357600080fd5b81019080805190602001909291905050506001819055507fee02351bf46aa1f2d27c44199680b19a7d673802e54ad9eb3acfb95936089f5b6001546040518082815260200191505060405180910390a150565b60008090505b600d60008375ffffffffffffffffffffffffffffffffffffffffffff191675ffffffffffffffffffffffffffffffffffffffffffff191681526020019081526020016000208054905081101561264e573373ffffffffffffffffffffffffffffffffffffffff16600d60008475ffffffffffffffffffffffffffffffffffffffffffff191675ffffffffffffffffffffffffffffffffffffffffffff19168152602001908152602001600020828154811015156125f557fe5b9060005260206000200160009054906101000a900473ffffffffffffffffffffffffffffffffffffffff1673ffffffffffffffffffffffffffffffffffffffff161415612641576126f8565b808060010191505061253c565b600d60008375ffffffffffffffffffffffffffffffffffffffffffff191675ffffffffffffffffffffffffffffffffffffffffffff191681526020019081526020016000203390806001815401808255809150509060018203906000526020600020016000909192909190916101000a81548173ffffffffffffffffffffffffffffffffffffffff021916908373ffffffffffffffffffffffffffffffffffffffff160217905550505b5050565b600080600090505b600d60008575ffffffffffffffffffffffffffffffffffffffffffff191675ffffffffffffffffffffffffffffffffffffffffffff191681526020019081526020016000208054905081101561281a578273ffffffffffffffffffffffffffffffffffffffff16600d60008675ffffffffffffffffffffffffffffffffffffffffffff191675ffffffffffffffffffffffffffffffffffffffffffff19168152602001908152602001600020828154811015156127bd57fe5b9060005260206000200160009054906101000a900473ffffffffffffffffffffffffffffffffffffffff1673ffffffffffffffffffffffffffffffffffffffff16141561280d576001915061281f565b8080600101915050612704565b600091505b5092915050565b828054600181600116156101000203166002900490600052602060002090601f016020900481019282601f1061286757805160ff1916838001178555612895565b82800160010185558215612895579182015b82811115612894578251825591602001919060010190612879565b5b5090506128a291906128a6565b5090565b6128c891905b808211156128c45760008160009055506001016128ac565b5090565b905600a165627a7a7230582014a424c59b2d8bf8bae622b49779f6dba01ab8b60ce7778c12d1dad8b6716b860029a165627a7a723058207f6d1d64ff94304f13a3b48a4e42c59648a89eb0ddb61892de86862147e1fee40029",
  "source": "pragma solidity ^0.4.18;\nimport \"./Tournament.sol\";\n\ncontract TournamentContractFactory {\n\tmapping(address => mapping(address => address)) tournamentContracts;\n    address[] contractAddresses;\n\n    event CreatedTournamentContract(\n        address tournamentContract\n    );\n\n\tfunction createTournament(string tournamentName, bytes10[] participants) public {\n\t\taddress newContract = new Tournament(msg.sender, tournamentName, participants);\n\t\ttournamentContracts[msg.sender][newContract] = newContract;\n\t\tcontractAddresses.push(newContract);\n        emit CreatedTournamentContract(newContract);\n\t}\n\n    function getAllContracts() public view returns (address[]) {\n        return contractAddresses;\n    }\n}",
  "sourcePath": "/Users/skjghisole/Desktop/tourneyMintServer/contracts/TournamentContractFactory.sol",
  "compiler": {
    "name": "solc",
    "version": "0.4.24+commit.e67f0147.Emscripten.clang"
  },
  "schemaVersion": "2.0.1",
  "updatedAt": "2018-10-22T17:33:27.071Z"
}