{
  "contractName": "TournamentContractFactory",
  "abi": [
    {
      "anonymous": false,
      "inputs": [
        {
          "indexed": false,
          "name": "tournamentContract",
          "type": "address"
        }
      ],
      "name": "CreatedTournamentContract",
      "type": "event"
    },
    {
      "constant": false,
      "inputs": [
        {
          "name": "tournamentName",
          "type": "string"
        },
        {
          "name": "participants",
          "type": "bytes10[]"
        }
      ],
      "name": "createTournament",
      "outputs": [],
      "payable": false,
      "stateMutability": "nonpayable",
      "type": "function"
    },
    {
      "constant": true,
      "inputs": [],
      "name": "getAllContracts",
      "outputs": [
        {
          "name": "",
          "type": "address[]"
        }
      ],
      "payable": false,
      "stateMutability": "view",
      "type": "function"
    }
  ],
  "bytecode": "0x608060405234801561001057600080fd5b50613612806100206000396000f30060806040526004361061004c576000357c0100000000000000000000000000000000000000000000000000000000900463ffffffff16806318d3ce96146100515780634bde6e48146100bd575b600080fd5b34801561005d57600080fd5b50610066610169565b6040518080602001828103825283818151815260200191508051906020019060200280838360005b838110156100a957808201518184015260208101905061008e565b505050509050019250505060405180910390f35b3480156100c957600080fd5b50610167600480360381019080803590602001908201803590602001908080601f0160208091040260200160405190810160405280939291908181526020018383808284378201915050505050509192919290803590602001908201803590602001908080602002602001604051908101604052809392919081815260200183836020028082843782019150505050505091929192905050506101f7565b005b606060018054806020026020016040519081016040528092919081815260200182805480156101ed57602002820191906000526020600020905b8160009054906101000a900473ffffffffffffffffffffffffffffffffffffffff1673ffffffffffffffffffffffffffffffffffffffff16815260200190600101908083116101a3575b5050505050905090565b6000338383610204610495565b808473ffffffffffffffffffffffffffffffffffffffff1673ffffffffffffffffffffffffffffffffffffffff1681526020018060200180602001838103835285818151815260200191508051906020019080838360005b8381101561027757808201518184015260208101905061025c565b50505050905090810190601f1680156102a45780820380516001836020036101000a031916815260200191505b50838103825284818151815260200191508051906020019060200280838360005b838110156102e05780820151818401526020810190506102c5565b5050505090500195505050505050604051809103906000f08015801561030a573d6000803e3d6000fd5b509050806000803373ffffffffffffffffffffffffffffffffffffffff1673ffffffffffffffffffffffffffffffffffffffff16815260200190815260200160002060008373ffffffffffffffffffffffffffffffffffffffff1673ffffffffffffffffffffffffffffffffffffffff16815260200190815260200160002060006101000a81548173ffffffffffffffffffffffffffffffffffffffff021916908373ffffffffffffffffffffffffffffffffffffffff16021790555060018190806001815401808255809150509060018203906000526020600020016000909192909190916101000a81548173ffffffffffffffffffffffffffffffffffffffff021916908373ffffffffffffffffffffffffffffffffffffffff160217905550507f060fcd653919c55aaa2885ec3e871400ccd239474de98651407f67283b42f73d81604051808273ffffffffffffffffffffffffffffffffffffffff1673ffffffffffffffffffffffffffffffffffffffff16815260200191505060405180910390a1505050565b604051613141806104a68339019056006080604052600060015560b460045560006006556040805190810160405280600781526020017f70656e64696e6700000000000000000000000000000000000000000000000000815250600790805190602001906200006092919062000431565b503480156200006e57600080fd5b5060405162003141380380620031418339810180604052810190808051906020019092919080518201929190602001805182019291905050508160099080519060200190620000bf92919062000431565b5082600260006101000a81548173ffffffffffffffffffffffffffffffffffffffff021916908373ffffffffffffffffffffffffffffffffffffffff1602179055506200011b8162000124640100000000026401000000009004565b505050620005f3565b80600081511115156200013657600080fd5b6200022460078054600181600116156101000203166002900480601f016020809104026020016040519081016040528092919081815260200182805460018160011615610100020316600290048015620001d45780601f10620001a857610100808354040283529160200191620001d4565b820191906000526020600020905b815481529060010190602001808311620001b657829003601f168201915b50505050506040805190810160405280600781526020017f70656e64696e670000000000000000000000000000000000000000000000000081525062000278640100000000026401000000009004565b15156200023057600080fd5b6000600483518115156200024057fe5b0614806200024f575060028251145b15156200025b57600080fd5b816000908051906020019062000273929190620004b8565b505050565b6000816040516020018082805190602001908083835b602083101515620002b557805182526020820191506020810190506020830392506200028e565b6001836020036101000a0380198251168184511680821785525050505050509050019150506040516020818303038152906040526040518082805190602001908083835b602083101515620003205780518252602082019150602081019050602083039250620002f9565b6001836020036101000a038019825116818451168082178552505050505050905001915050604051809103902060001916836040516020018082805190602001908083835b6020831015156200038c578051825260208201915060208101905060208303925062000365565b6001836020036101000a0380198251168184511680821785525050505050509050019150506040516020818303038152906040526040518082805190602001908083835b602083101515620003f75780518252602082019150602081019050602083039250620003d0565b6001836020036101000a03801982511681845116808217855250505050505090500191505060405180910390206000191614905092915050565b828054600181600116156101000203166002900490600052602060002090601f016020900481019282601f106200047457805160ff1916838001178555620004a5565b82800160010185558215620004a5579182015b82811115620004a457825182559160200191906001019062000487565b5b509050620004b491906200058f565b5090565b828054828255906000526020600020906002016003900481019282156200057c5791602002820160005b838211156200054257835183826101000a81548169ffffffffffffffffffff0219169083760100000000000000000000000000000000000000000000900402179055509260200192600a01602081600901049283019260010302620004e2565b80156200057a5782816101000a81549069ffffffffffffffffffff0219169055600a0160208160090104928301926001030262000542565b505b5090506200058b9190620005b7565b5090565b620005b491905b80821115620005b057600081600090555060010162000596565b5090565b90565b620005f091905b80821115620005ec57600081816101000a81549069ffffffffffffffffffff021916905550600101620005be565b5090565b90565b612b3e80620006036000396000f3006080604052600436106100e6576000357c0100000000000000000000000000000000000000000000000000000000900463ffffffff16806301ee10a6146100eb57806314f54bd6146101025780631c4485341461019d578063309652ec1461022d5780635aa68ac0146102585780636d543f6b146102c45780637bcf6d92146102ef5780637bed4dd41461033557806393211ddc1461036e5780639b487de1146103c8578063b401faf114610458578063b59fa29614610462578063bf559d11146104f2578063bf862a9914610509578063e657f95f14610572578063f132b62c14610589575b600080fd5b3480156100f757600080fd5b506101006105b4565b005b34801561010e57600080fd5b50610146600480360381019080803575ffffffffffffffffffffffffffffffffffffffffffff191690602001909291905050506106ac565b6040518080602001828103825283818151815260200191508051906020019060200280838360005b8381101561018957808201518184015260208101905061016e565b505050509050019250505060405180910390f35b3480156101a957600080fd5b506101b2610795565b6040518080602001828103825283818151815260200191508051906020019080838360005b838110156101f25780820151818401526020810190506101d7565b50505050905090810190601f16801561021f5780820380516001836020036101000a031916815260200191505b509250505060405180910390f35b34801561023957600080fd5b50610242610837565b6040518082815260200191505060405180910390f35b34801561026457600080fd5b5061026d6108f0565b6040518080602001828103825283818151815260200191508051906020019060200280838360005b838110156102b0578082015181840152602081019050610295565b505050509050019250505060405180910390f35b3480156102d057600080fd5b506102d961099a565b6040518082815260200191505060405180910390f35b3480156102fb57600080fd5b50610333600480360381019080803575ffffffffffffffffffffffffffffffffffffffffffff19169060200190929190505050610a88565b005b61036c600480360381019080803575ffffffffffffffffffffffffffffffffffffffffffff19169060200190929190505050610d88565b005b34801561037a57600080fd5b506103b2600480360381019080803575ffffffffffffffffffffffffffffffffffffffffffff19169060200190929190505050611263565b6040518082815260200191505060405180910390f35b3480156103d457600080fd5b506103dd611495565b6040518080602001828103825283818151815260200191508051906020019080838360005b8381101561041d578082015181840152602081019050610402565b50505050905090810190601f16801561044a5780820380516001836020036101000a031916815260200191505b509250505060405180910390f35b610460611537565b005b34801561046e57600080fd5b50610477611b2d565b6040518080602001828103825283818151815260200191508051906020019080838360005b838110156104b757808201518184015260208101905061049c565b50505050905090810190601f1680156104e45780820380516001836020036101000a031916815260200191505b509250505060405180910390f35b3480156104fe57600080fd5b50610507611bcf565b005b34801561051557600080fd5b50610570600480360381019080803590602001908201803590602001908080601f0160208091040260200160405190810160405280939291908181526020018383808284378201915050505050509192919290505050611e21565b005b34801561057e57600080fd5b50610587612109565b005b34801561059557600080fd5b5061059e6122a3565b6040518082815260200191505060405180910390f35b4273__SafeMathLib___________________________63771602f76003546004546040518363ffffffff167c0100000000000000000000000000000000000000000000000000000000028152600401808381526020018281526020019250505060206040518083038186803b15801561062c57600080fd5b505af4158015610640573d6000803e3d6000fd5b505050506040513d602081101561065657600080fd5b810190808051906020019092919050505010156106aa577f4c5827f2e580b962b6d2f99674fdeeb4c3c1c044687b5f934371b799f7a648b56001604051808215151515815260200191505060405180910390a15b565b6060816106b881612374565b15156106c357600080fd5b600d60008475ffffffffffffffffffffffffffffffffffffffffffff191675ffffffffffffffffffffffffffffffffffffffffffff1916815260200190815260200160002080548060200260200160405190810160405280929190818152602001828054801561078857602002820191906000526020600020905b8160009054906101000a900473ffffffffffffffffffffffffffffffffffffffff1673ffffffffffffffffffffffffffffffffffffffff168152602001906001019080831161073e575b5050505050915050919050565b606060078054600181600116156101000203166002900480601f01602080910402602001604051908101604052809291908181526020018280546001816001161561010002031660029004801561082d5780601f106108025761010080835404028352916020019161082d565b820191906000526020600020905b81548152906001019060200180831161081057829003601f168201915b5050505050905090565b600073__SafeMathLib___________________________63f88e9fbf6001546103e86040518363ffffffff167c0100000000000000000000000000000000000000000000000000000000028152600401808381526020018281526020019250505060206040518083038186803b1580156108b057600080fd5b505af41580156108c4573d6000803e3d6000fd5b505050506040513d60208110156108da57600080fd5b8101908080519060200190929190505050905090565b6060600080548060200260200160405190810160405280929190818152602001828054801561099057602002820191906000526020600020906000905b82829054906101000a90047601000000000000000000000000000000000000000000000275ffffffffffffffffffffffffffffffffffffffffffff1916815260200190600a019060208260090104928301926001038202915080841161092d5790505b5050505050905090565b6000610a7560078054600181600116156101000203166002900480601f016020809104026020016040519081016040528092919081815260200182805460018160011615610100020316600290048015610a355780601f10610a0a57610100808354040283529160200191610a35565b820191906000526020600020905b815481529060010190602001808311610a1857829003601f168201915b50505050506040805190810160405280600581526020017f656e64656400000000000000000000000000000000000000000000000000000081525061242b565b1515610a8057600080fd5b600654905090565b600260009054906101000a900473ffffffffffffffffffffffffffffffffffffffff1673ffffffffffffffffffffffffffffffffffffffff163373ffffffffffffffffffffffffffffffffffffffff16141515610ae457600080fd5b610bbd60078054600181600116156101000203166002900480601f016020809104026020016040519081016040528092919081815260200182805460018160011615610100020316600290048015610b7d5780601f10610b5257610100808354040283529160200191610b7d565b820191906000526020600020905b815481529060010190602001808311610b6057829003601f168201915b50505050506040805190810160405280600781526020017f6f6e676f696e670000000000000000000000000000000000000000000000000081525061242b565b1515610bc857600080fd5b4273__SafeMathLib___________________________63771602f76003546004546040518363ffffffff167c0100000000000000000000000000000000000000000000000000000000028152600401808381526020018281526020019250505060206040518083038186803b158015610c4057600080fd5b505af4158015610c54573d6000803e3d6000fd5b505050506040513d6020811015610c6a57600080fd5b8101908080519060200190929190505050101515610c8757600080fd5b60008080549050111515610c9a57600080fd5b80600560006101000a81548169ffffffffffffffffffff021916908376010000000000000000000000000000000000000000000090040217905550610d136040805190810160405280600581526020017f656e6465640000000000000000000000000000000000000000000000000000008152506125dc565b6001546006819055507f7ae3b47e8a5b07370c09500f52410dc250fe6a61d883dc0d1008f5ba7cdf363d81604051808275ffffffffffffffffffffffffffffffffffffffffffff191675ffffffffffffffffffffffffffffffffffffffffffff1916815260200191505060405180910390a150565b34600081111515610d9857600080fd5b600a60ff16600081111515610dac57600080fd5b82610db681612374565b1515610dc157600080fd5b610e9a60078054600181600116156101000203166002900480601f016020809104026020016040519081016040528092919081815260200182805460018160011615610100020316600290048015610e5a5780601f10610e2f57610100808354040283529160200191610e5a565b820191906000526020600020905b815481529060010190602001808311610e3d57829003601f168201915b50505050506040805190810160405280600781526020017f62657474696e670000000000000000000000000000000000000000000000000081525061242b565b1515610ea557600080fd5b4273__SafeMathLib___________________________63771602f76003546004546040518363ffffffff167c0100000000000000000000000000000000000000000000000000000000028152600401808381526020018281526020019250505060206040518083038186803b158015610f1d57600080fd5b505af4158015610f31573d6000803e3d6000fd5b505050506040513d6020811015610f4757600080fd5b8101908080519060200190929190505050111515610f6457600080fd5b60008080549050111515610f7757600080fd5b73__SafeMathLib___________________________63771602f7600a60003373ffffffffffffffffffffffffffffffffffffffff1673ffffffffffffffffffffffffffffffffffffffff16815260200190815260200160002060008775ffffffffffffffffffffffffffffffffffffffffffff191675ffffffffffffffffffffffffffffffffffffffffffff1916815260200190815260200160002054346040518363ffffffff167c0100000000000000000000000000000000000000000000000000000000028152600401808381526020018281526020019250505060206040518083038186803b15801561106c57600080fd5b505af4158015611080573d6000803e3d6000fd5b505050506040513d602081101561109657600080fd5b8101908080519060200190929190505050600a60003373ffffffffffffffffffffffffffffffffffffffff1673ffffffffffffffffffffffffffffffffffffffff16815260200190815260200160002060008675ffffffffffffffffffffffffffffffffffffffffffff191675ffffffffffffffffffffffffffffffffffffffffffff191681526020019081526020016000208190555073__SafeMathLib___________________________63771602f7600154346040518363ffffffff167c0100000000000000000000000000000000000000000000000000000000028152600401808381526020018281526020019250505060206040518083038186803b1580156111a257600080fd5b505af41580156111b6573d6000803e3d6000fd5b505050506040513d60208110156111cc57600080fd5b81019080805190602001909291905050506001819055506111ec8461277d565b7f74dd504e3c298350a3c9e8cb57b639d3a3b9d1904f67e4f56ade03106c219a4f8434604051808375ffffffffffffffffffffffffffffffffffffffffffff191675ffffffffffffffffffffffffffffffffffffffffffff191681526020018281526020019250505060405180910390a150505050565b6000808261127081612374565b151561127b57600080fd5b600091505b600d60008575ffffffffffffffffffffffffffffffffffffffffffff191675ffffffffffffffffffffffffffffffffffffffffffff191681526020019081526020016000208054905082101561148b5773__SafeMathLib___________________________63771602f784600a6000600d60008a75ffffffffffffffffffffffffffffffffffffffffffff191675ffffffffffffffffffffffffffffffffffffffffffff191681526020019081526020016000208781548110151561134157fe5b9060005260206000200160009054906101000a900473ffffffffffffffffffffffffffffffffffffffff1673ffffffffffffffffffffffffffffffffffffffff1673ffffffffffffffffffffffffffffffffffffffff16815260200190815260200160002060008875ffffffffffffffffffffffffffffffffffffffffffff191675ffffffffffffffffffffffffffffffffffffffffffff19168152602001908152602001600020546040518363ffffffff167c0100000000000000000000000000000000000000000000000000000000028152600401808381526020018281526020019250505060206040518083038186803b15801561144157600080fd5b505af4158015611455573d6000803e3d6000fd5b505050506040513d602081101561146b57600080fd5b810190808051906020019092919050505092508180600101925050611280565b8292505050919050565b606060088054600181600116156101000203166002900480601f01602080910402602001604051908101604052809291908181526020018280546001816001161561010002031660029004801561152d5780601f106115025761010080835404028352916020019161152d565b820191906000526020600020905b81548152906001019060200180831161151057829003601f168201915b5050505050905090565b600061161260078054600181600116156101000203166002900480601f0160208091040260200160405190810160405280929190818152602001828054600181600116156101000203166002900480156115d25780601f106115a7576101008083540402835291602001916115d2565b820191906000526020600020905b8154815290600101906020018083116115b557829003601f168201915b50505050506040805190810160405280600581526020017f656e64656400000000000000000000000000000000000000000000000000000081525061242b565b151561161d57600080fd5b4273__SafeMathLib___________________________63771602f76003546004546040518363ffffffff167c0100000000000000000000000000000000000000000000000000000000028152600401808381526020018281526020019250505060206040518083038186803b15801561169557600080fd5b505af41580156116a9573d6000803e3d6000fd5b505050506040513d60208110156116bf57600080fd5b81019080805190602001909291905050501015156116dc57600080fd5b61170b600560009054906101000a90047601000000000000000000000000000000000000000000000233612943565b151561171657600080fd5b60001515600b60003373ffffffffffffffffffffffffffffffffffffffff1673ffffffffffffffffffffffffffffffffffffffff1681526020019081526020016000206000600560009054906101000a90047601000000000000000000000000000000000000000000000275ffffffffffffffffffffffffffffffffffffffffffff191675ffffffffffffffffffffffffffffffffffffffffffff1916815260200190815260200160002060009054906101000a900460ff1615151415156117dd57600080fd5b6006546000811115156117ef57600080fd5b61181d600560009054906101000a900476010000000000000000000000000000000000000000000002611263565b600a60003373ffffffffffffffffffffffffffffffffffffffff1673ffffffffffffffffffffffffffffffffffffffff1681526020019081526020016000206000600560009054906101000a90047601000000000000000000000000000000000000000000000275ffffffffffffffffffffffffffffffffffffffffffff191675ffffffffffffffffffffffffffffffffffffffffffff1916815260200190815260200160002054600154028115156118d257fe5b0491503373ffffffffffffffffffffffffffffffffffffffff166108fc839081150290604051600060405180830381858888f1935050505015801561191b573d6000803e3d6000fd5b5073__SafeMathLib___________________________633ef5e445600654846040518363ffffffff167c0100000000000000000000000000000000000000000000000000000000028152600401808381526020018281526020019250505060206040518083038186803b15801561199157600080fd5b505af41580156119a5573d6000803e3d6000fd5b505050506040513d60208110156119bb57600080fd5b8101908080519060200190929190505050600681905550600b60003373ffffffffffffffffffffffffffffffffffffffff1673ffffffffffffffffffffffffffffffffffffffff1681526020019081526020016000206000600560009054906101000a90047601000000000000000000000000000000000000000000000275ffffffffffffffffffffffffffffffffffffffffffff191675ffffffffffffffffffffffffffffffffffffffffffff1916815260200190815260200160002060009054906101000a9050507fe5c55f7578cf0d5a5b67635ab20bd9d1c8ec5b91044a31743c6fe041a26894ad6006546040518082815260200191505060405180910390a17f4cf4172233556e29a7d59e170f63333fb269c04a386f72b9ad078b67bd86baeb3383604051808373ffffffffffffffffffffffffffffffffffffffff1673ffffffffffffffffffffffffffffffffffffffff1681526020018281526020019250505060405180910390a15050565b606060098054600181600116156101000203166002900480601f016020809104026020016040519081016040528092919081815260200182805460018160011615610100020316600290048015611bc55780601f10611b9a57610100808354040283529160200191611bc5565b820191906000526020600020905b815481529060010190602001808311611ba857829003601f168201915b5050505050905090565b600260009054906101000a900473ffffffffffffffffffffffffffffffffffffffff1673ffffffffffffffffffffffffffffffffffffffff163373ffffffffffffffffffffffffffffffffffffffff16141515611c2b57600080fd5b60008080549050111515611c3e57600080fd5b4273__SafeMathLib___________________________63771602f76003546004546040518363ffffffff167c0100000000000000000000000000000000000000000000000000000000028152600401808381526020018281526020019250505060206040518083038186803b158015611cb657600080fd5b505af4158015611cca573d6000803e3d6000fd5b505050506040513d6020811015611ce057600080fd5b8101908080519060200190929190505050101515611cfd57600080fd5b611dd660078054600181600116156101000203166002900480601f016020809104026020016040519081016040528092919081815260200182805460018160011615610100020316600290048015611d965780601f10611d6b57610100808354040283529160200191611d96565b820191906000526020600020905b815481529060010190602001808311611d7957829003601f168201915b50505050506040805190810160405280600781526020017f62657474696e670000000000000000000000000000000000000000000000000081525061242b565b1515611de157600080fd5b611e1f6040805190810160405280600781526020017f6f6e676f696e67000000000000000000000000000000000000000000000000008152506125dc565b565b600260009054906101000a900473ffffffffffffffffffffffffffffffffffffffff1673ffffffffffffffffffffffffffffffffffffffff163373ffffffffffffffffffffffffffffffffffffffff16141515611e7d57600080fd5b60001515611f5a60078054600181600116156101000203166002900480601f016020809104026020016040519081016040528092919081815260200182805460018160011615610100020316600290048015611f1a5780601f10611eef57610100808354040283529160200191611f1a565b820191906000526020600020905b815481529060010190602001808311611efd57829003601f168201915b50505050506040805190810160405280600581526020017f656e64656400000000000000000000000000000000000000000000000000000081525061242b565b1515141515611f6857600080fd5b6000151561204560078054600181600116156101000203166002900480601f0160208091040260200160405190810160405280929190818152602001828054600181600116156101000203166002900480156120055780601f10611fda57610100808354040283529160200191612005565b820191906000526020600020905b815481529060010190602001808311611fe857829003601f168201915b50505050506040805190810160405280600781526020017f62657474696e670000000000000000000000000000000000000000000000000081525061242b565b151514151561205357600080fd5b8060089080519060200190612069929190612a6d565b507f6c91987680c799ab0f6b677b2c251de89f995d25a4a62a6076c6aba5b2250866816040518080602001828103825283818151815260200191508051906020019080838360005b838110156120cc5780820151818401526020810190506120b1565b50505050905090810190601f1680156120f95780820380516001836020036101000a031916815260200191505b509250505060405180910390a150565b6121e260078054600181600116156101000203166002900480601f0160208091040260200160405190810160405280929190818152602001828054600181600116156101000203166002900480156121a25780601f10612177576101008083540402835291602001916121a2565b820191906000526020600020905b81548152906001019060200180831161218557829003601f168201915b50505050506040805190810160405280600781526020017f70656e64696e670000000000000000000000000000000000000000000000000081525061242b565b15156121ed57600080fd5b6000808054905011151561220057600080fd5b600260009054906101000a900473ffffffffffffffffffffffffffffffffffffffff1673ffffffffffffffffffffffffffffffffffffffff163373ffffffffffffffffffffffffffffffffffffffff1614151561225c57600080fd5b426003819055506122a16040805190810160405280600781526020017f62657474696e67000000000000000000000000000000000000000000000000008152506125dc565b565b60004273__SafeMathLib___________________________63771602f76003546004546040518363ffffffff167c0100000000000000000000000000000000000000000000000000000000028152600401808381526020018281526020019250505060206040518083038186803b15801561231d57600080fd5b505af4158015612331573d6000803e3d6000fd5b505050506040513d602081101561234757600080fd5b810190808051906020019092919050505010156123675760009050612371565b6004546003540190505b90565b600080600090505b600080549050811015612420578275ffffffffffffffffffffffffffffffffffffffffffff19166000828154811015156123b257fe5b9060005260206000209060039182820401919006600a029054906101000a90047601000000000000000000000000000000000000000000000275ffffffffffffffffffffffffffffffffffffffffffff191614156124135760019150612425565b808060010191505061237c565b600091505b50919050565b6000816040516020018082805190602001908083835b6020831015156124665780518252602082019150602081019050602083039250612441565b6001836020036101000a0380198251168184511680821785525050505050509050019150506040516020818303038152906040526040518082805190602001908083835b6020831015156124cf57805182526020820191506020810190506020830392506124aa565b6001836020036101000a038019825116818451168082178552505050505050905001915050604051809103902060001916836040516020018082805190602001908083835b6020831015156125395780518252602082019150602081019050602083039250612514565b6001836020036101000a0380198251168184511680821785525050505050509050019150506040516020818303038152906040526040518082805190602001908083835b6020831015156125a2578051825260208201915060208101905060208303925061257d565b6001836020036101000a03801982511681845116808217855250505050505090500191505060405180910390206000191614905092915050565b600015156126b960078054600181600116156101000203166002900480601f0160208091040260200160405190810160405280929190818152602001828054600181600116156101000203166002900480156126795780601f1061264e57610100808354040283529160200191612679565b820191906000526020600020905b81548152906001019060200180831161265c57829003601f168201915b50505050506040805190810160405280600581526020017f656e64656400000000000000000000000000000000000000000000000000000081525061242b565b15151415156126c757600080fd5b80600790805190602001906126dd929190612a6d565b507f8f1eba3fb0072e89106e090a8e4ff657eca296ff0b7786ad86f52f5a6eaad164816040518080602001828103825283818151815260200191508051906020019080838360005b83811015612740578082015181840152602081019050612725565b50505050905090810190601f16801561276d5780820380516001836020036101000a031916815260200191505b509250505060405180910390a150565b60008090505b600d60008375ffffffffffffffffffffffffffffffffffffffffffff191675ffffffffffffffffffffffffffffffffffffffffffff1916815260200190815260200160002080549050811015612895573373ffffffffffffffffffffffffffffffffffffffff16600d60008475ffffffffffffffffffffffffffffffffffffffffffff191675ffffffffffffffffffffffffffffffffffffffffffff191681526020019081526020016000208281548110151561283c57fe5b9060005260206000200160009054906101000a900473ffffffffffffffffffffffffffffffffffffffff1673ffffffffffffffffffffffffffffffffffffffff1614156128885761293f565b8080600101915050612783565b600d60008375ffffffffffffffffffffffffffffffffffffffffffff191675ffffffffffffffffffffffffffffffffffffffffffff191681526020019081526020016000203390806001815401808255809150509060018203906000526020600020016000909192909190916101000a81548173ffffffffffffffffffffffffffffffffffffffff021916908373ffffffffffffffffffffffffffffffffffffffff160217905550505b5050565b600080600090505b600d60008575ffffffffffffffffffffffffffffffffffffffffffff191675ffffffffffffffffffffffffffffffffffffffffffff1916815260200190815260200160002080549050811015612a61578273ffffffffffffffffffffffffffffffffffffffff16600d60008675ffffffffffffffffffffffffffffffffffffffffffff191675ffffffffffffffffffffffffffffffffffffffffffff1916815260200190815260200160002082815481101515612a0457fe5b9060005260206000200160009054906101000a900473ffffffffffffffffffffffffffffffffffffffff1673ffffffffffffffffffffffffffffffffffffffff161415612a545760019150612a66565b808060010191505061294b565b600091505b5092915050565b828054600181600116156101000203166002900490600052602060002090601f016020900481019282601f10612aae57805160ff1916838001178555612adc565b82800160010185558215612adc579182015b82811115612adb578251825591602001919060010190612ac0565b5b509050612ae99190612aed565b5090565b612b0f91905b80821115612b0b576000816000905550600101612af3565b5090565b905600a165627a7a72305820bd425f26c394fb07c359d31c88e078262ec69aa69183153ec1707589f187912e0029a165627a7a72305820ee708440694063a519b85ff5cf14f3d4e97e24792d619d09c0a9cb52e46afd490029",
  "source": "pragma solidity ^0.4.18;\nimport \"./Tournament.sol\";\n\ncontract TournamentContractFactory {\n\tmapping(address => mapping(address => address)) tournamentContracts;\n    address[] contractAddresses;\n\n    event CreatedTournamentContract(\n        address tournamentContract\n    );\n\n\tfunction createTournament(string tournamentName, bytes10[] participants) public {\n\t\taddress newContract = new Tournament(msg.sender, tournamentName, participants);\n\t\ttournamentContracts[msg.sender][newContract] = newContract;\n\t\tcontractAddresses.push(newContract);\n        emit CreatedTournamentContract(newContract);\n\t}\n\n    function getAllContracts() public view returns (address[]) {\n        return contractAddresses;\n    }\n}",
  "sourcePath": "/Users/skjghisole/Desktop/tourneyMintServer/contracts/TournamentContractFactory.sol",
  "compiler": {
    "name": "solc",
    "version": "0.4.24+commit.e67f0147.Emscripten.clang"
  },
  "schemaVersion": "2.0.1",
  "updatedAt": "2018-10-20T12:25:17.355Z"
}